{
  "contractName": "LoanFactory",
  "abi": [
    {
      "constant": true,
      "inputs": [
        {
          "name": "",
          "type": "uint256"
        }
      ],
      "name": "borrowers",
      "outputs": [
        {
          "name": "",
          "type": "address"
        }
      ],
      "payable": false,
      "stateMutability": "view",
      "type": "function"
    },
    {
      "constant": true,
      "inputs": [
        {
          "name": "",
          "type": "address"
        }
      ],
      "name": "borrowerLoanIndex",
      "outputs": [
        {
          "name": "",
          "type": "address"
        }
      ],
      "payable": false,
      "stateMutability": "view",
      "type": "function"
    },
    {
      "constant": true,
      "inputs": [
        {
          "name": "",
          "type": "uint256"
        }
      ],
      "name": "loans",
      "outputs": [
        {
          "name": "",
          "type": "address"
        }
      ],
      "payable": false,
      "stateMutability": "view",
      "type": "function"
    },
    {
      "anonymous": false,
      "inputs": [
        {
          "indexed": false,
          "name": "loanAddress",
          "type": "address"
        },
        {
          "indexed": false,
          "name": "borrowerAddress",
          "type": "address"
        }
      ],
      "name": "LoanCreated",
      "type": "event"
    },
    {
      "constant": true,
      "inputs": [],
      "name": "loanCount",
      "outputs": [
        {
          "name": "_loanCount",
          "type": "uint256"
        }
      ],
      "payable": false,
      "stateMutability": "view",
      "type": "function"
    },
    {
      "constant": true,
      "inputs": [
        {
          "name": "_borrowerAddress",
          "type": "address"
        }
      ],
      "name": "getLoanForBorrower",
      "outputs": [
        {
          "name": "_loanAddress",
          "type": "address"
        }
      ],
      "payable": false,
      "stateMutability": "view",
      "type": "function"
    },
    {
      "constant": false,
      "inputs": [
        {
          "name": "_loanAmountInEthers",
          "type": "uint256"
        },
        {
          "name": "_repaymentDurationInDays",
          "type": "uint256"
        },
        {
          "name": "_ipfsHash",
          "type": "string"
        }
      ],
      "name": "create",
      "outputs": [
        {
          "name": "_loanAddress",
          "type": "address"
        }
      ],
      "payable": false,
      "stateMutability": "nonpayable",
      "type": "function"
    }
  ],
  "bytecode": "0x6060604052341561000f57600080fd5b611dad8061001e6000396000f300606060405260043610610078576000357c0100000000000000000000000000000000000000000000000000000000900463ffffffff1680634b068c781461007d5780637924d93f1461012c5780637c58a97a1461018f578063b521ead714610208578063ce63094d14610281578063e1ec3c68146102aa575b600080fd5b341561008857600080fd5b6100ea600480803590602001909190803590602001909190803590602001908201803590602001908080601f0160208091040260200160405190810160405280939291908181526020018383808284378201915050505050509190505061030d565b604051808273ffffffffffffffffffffffffffffffffffffffff1673ffffffffffffffffffffffffffffffffffffffff16815260200191505060405180910390f35b341561013757600080fd5b61014d60048080359060200190919050506105de565b604051808273ffffffffffffffffffffffffffffffffffffffff1673ffffffffffffffffffffffffffffffffffffffff16815260200191505060405180910390f35b341561019a57600080fd5b6101c6600480803573ffffffffffffffffffffffffffffffffffffffff1690602001909190505061061d565b604051808273ffffffffffffffffffffffffffffffffffffffff1673ffffffffffffffffffffffffffffffffffffffff16815260200191505060405180910390f35b341561021357600080fd5b61023f600480803573ffffffffffffffffffffffffffffffffffffffff16906020019091905050610686565b604051808273ffffffffffffffffffffffffffffffffffffffff1673ffffffffffffffffffffffffffffffffffffffff16815260200191505060405180910390f35b341561028c57600080fd5b6102946106b9565b6040518082815260200191505060405180910390f35b34156102b557600080fd5b6102cb60048080359060200190919050506106c5565b604051808273ffffffffffffffffffffffffffffffffffffffff1673ffffffffffffffffffffffffffffffffffffffff16815260200191505060405180910390f35b600080600080339250601e91508287838888610327610704565b808673ffffffffffffffffffffffffffffffffffffffff1673ffffffffffffffffffffffffffffffffffffffff16815260200185815260200184815260200183815260200180602001828103825283818151815260200191508051906020019080838360005b838110156103a857808201518184015260208101905061038d565b50505050905090810190601f1680156103d55780820380516001836020036101000a031916815260200191505b509650505050505050604051809103906000f08015156103f457600080fd5b90506000805480600101828161040a9190610714565b9160005260206000209001600083909190916101000a81548173ffffffffffffffffffffffffffffffffffffffff021916908373ffffffffffffffffffffffffffffffffffffffff160217905550506001805480600101828161046d9190610714565b9160005260206000209001600085909190916101000a81548173ffffffffffffffffffffffffffffffffffffffff021916908373ffffffffffffffffffffffffffffffffffffffff1602179055505080600260008573ffffffffffffffffffffffffffffffffffffffff1673ffffffffffffffffffffffffffffffffffffffff16815260200190815260200160002060006101000a81548173ffffffffffffffffffffffffffffffffffffffff021916908373ffffffffffffffffffffffffffffffffffffffff1602179055507f89ccfc5e75642b3e017aea5b211bdfbb93e3a3d488f86df28801c48f3771a1d58184604051808373ffffffffffffffffffffffffffffffffffffffff1673ffffffffffffffffffffffffffffffffffffffff1681526020018273ffffffffffffffffffffffffffffffffffffffff1673ffffffffffffffffffffffffffffffffffffffff1681526020019250505060405180910390a18093505050509392505050565b6001818154811015156105ed57fe5b90600052602060002090016000915054906101000a900473ffffffffffffffffffffffffffffffffffffffff1681565b6000600260008373ffffffffffffffffffffffffffffffffffffffff1673ffffffffffffffffffffffffffffffffffffffff16815260200190815260200160002060009054906101000a900473ffffffffffffffffffffffffffffffffffffffff169050919050565b60026020528060005260406000206000915054906101000a900473ffffffffffffffffffffffffffffffffffffffff1681565b60008080549050905090565b6000818154811015156106d457fe5b90600052602060002090016000915054906101000a900473ffffffffffffffffffffffffffffffffffffffff1681565b60405161161c8061076683390190565b81548183558181151161073b5781836000526020600020918201910161073a9190610740565b5b505050565b61076291905b8082111561075e576000816000905550600101610746565b5090565b905600606060405234156200001057600080fd5b6040516200161c3803806200161c83398101604052808051906020019091908051906020019091908051906020019091908051906020019091908051820191905050846000806101000a81548173ffffffffffffffffffffffffffffffffffffffff021916908373ffffffffffffffffffffffffffffffffffffffff160217905550670de0b6b3a76400008402600181905550816002819055506201518083024201600381905550620151808202600354016004819055508060059080519060200190620000e092919062000147565b50600b8054806001018281620000f79190620001ce565b91600052602060002090600202016000604080519081016040528060045481526020016001548152509091909150600082015181600001556020820151816001015550505050505050506200025d565b828054600181600116156101000203166002900490600052602060002090601f016020900481019282601f106200018a57805160ff1916838001178555620001bb565b82800160010185558215620001bb579182015b82811115620001ba5782518255916020019190600101906200019d565b5b509050620001ca919062000203565b5090565b815481835581811511620001fe57600202816002028360005260206000209182019101620001fd91906200022b565b5b505050565b6200022891905b80821115620002245760008160009055506001016200020a565b5090565b90565b6200025a91905b80821115620002565760008082016000905560018201600090555060020162000232565b5090565b90565b6113af806200026d6000396000f300606060405260043610610133576000357c0100000000000000000000000000000000000000000000000000000000900463ffffffff1680630c3f6acf1461013857806319cc3aaa1461016f578063281380e81461019857806328b4e856146101c15780632d6963ce146101d6578063402d8883146102395780635cdb9829146102435780635edf0c9e146102585780635f97a7d8146102815780636fbfd409146102dc5780637b3e5e7b1461031a5780637ba61ea51461034357806387d81789146103985780638e362394146103d657806395e72314146103ff57806397dffc611461044c5780639d585f7f14610456578063bb927c461461047f578063c623674f146104a8578063cbc9130e14610536578063d0bf4de61461055f578063ee86afd81461058c578063f14f6e17146105b5575b600080fd5b341561014357600080fd5b61014b6105ca565b6040518082600481111561015b57fe5b60ff16815260200191505060405180910390f35b341561017a57600080fd5b6101826105dd565b6040518082815260200191505060405180910390f35b34156101a357600080fd5b6101ab6105e3565b6040518082815260200191505060405180910390f35b34156101cc57600080fd5b6101d46105f1565b005b34156101e157600080fd5b6101f7600480803590602001909190505061065e565b604051808273ffffffffffffffffffffffffffffffffffffffff1673ffffffffffffffffffffffffffffffffffffffff16815260200191505060405180910390f35b61024161069d565b005b341561024e57600080fd5b6102566109eb565b005b341561026357600080fd5b61026b610b7c565b6040518082815260200191505060405180910390f35b341561028c57600080fd5b6102b8600480803573ffffffffffffffffffffffffffffffffffffffff16906020019091905050610b8a565b60405180848152602001838152602001828152602001935050505060405180910390f35b34156102e757600080fd5b6102fd6004808035906020019091905050610bb4565b604051808381526020018281526020019250505060405180910390f35b341561032557600080fd5b61032d610be7565b6040518082815260200191505060405180910390f35b341561034e57600080fd5b610356610bed565b604051808273ffffffffffffffffffffffffffffffffffffffff1673ffffffffffffffffffffffffffffffffffffffff16815260200191505060405180910390f35b34156103a357600080fd5b6103b96004808035906020019091905050610c12565b604051808381526020018281526020019250505060405180910390f35b34156103e157600080fd5b6103e9610c45565b6040518082815260200191505060405180910390f35b341561040a57600080fd5b610436600480803573ffffffffffffffffffffffffffffffffffffffff16906020019091905050610c4b565b6040518082815260200191505060405180910390f35b610454610d4a565b005b341561046157600080fd5b610469610fc3565b6040518082815260200191505060405180910390f35b341561048a57600080fd5b610492610fc9565b6040518082815260200191505060405180910390f35b34156104b357600080fd5b6104bb610fd6565b6040518080602001828103825283818151815260200191508051906020019080838360005b838110156104fb5780820151818401526020810190506104e0565b50505050905090810190601f1680156105285780820380516001836020036101000a031916815260200191505b509250505060405180910390f35b341561054157600080fd5b610549611074565b6040518082815260200191505060405180910390f35b341561056a57600080fd5b61057261107a565b604051808215151515815260200191505060405180910390f35b341561059757600080fd5b61059f6110b9565b6040518082815260200191505060405180910390f35b34156105c057600080fd5b6105c86110bf565b005b600a60009054906101000a900460ff1681565b60045481565b600060065460015403905090565b60035442101580156106065750600154600654105b1561065c576004600a60006101000a81548160ff0219169083600481111561062a57fe5b02179055507f5dc919cafc7dd3f912b1ba505941b4eb1c8f4fd4bea581b22982d7d0feef549c60405160405180910390a15b565b60088181548110151561066d57fe5b90600052602060002090016000915054906101000a900473ffffffffffffffffffffffffffffffffffffffff1681565b60008060008060008060009054906101000a900473ffffffffffffffffffffffffffffffffffffffff1673ffffffffffffffffffffffffffffffffffffffff163373ffffffffffffffffffffffffffffffffffffffff1614151561070057600080fd5b6002600481111561070d57fe5b600a60009054906101000a900460ff16600481111561072857fe5b14151561073457600080fd5b61073c610b7c565b341115151561074a57600080fd5b346007600082825401925050819055507f9540628bcc956d1875c390fc9c9937464c5d6a3bcef396c4c48c262c25f89e796000809054906101000a900473ffffffffffffffffffffffffffffffffffffffff1634604051808373ffffffffffffffffffffffffffffffffffffffff1673ffffffffffffffffffffffffffffffffffffffff1681526020018281526020019250505060405180910390a1600c80548060010182816107fa91906112d1565b916000526020600020906002020160006040805190810160405280428152602001348152509091909150600082015181600001556020820151816001015550505034945060009350600092505b6008805490508310156109dc5760088381548110151561086357fe5b906000526020600020900160009054906101000a900473ffffffffffffffffffffffffffffffffffffffff16915061090385600960008573ffffffffffffffffffffffffffffffffffffffff1673ffffffffffffffffffffffffffffffffffffffff1681526020019081526020016000206060604051908101604052908160008201548152602001600182015481526020016002820154815250506111d4565b905060008111156109cf577f5f1d3e8a00979c6a9305039148c35f8fa408d3292c93f865cad76e32ae6ce0bb8282604051808373ffffffffffffffffffffffffffffffffffffffff1673ffffffffffffffffffffffffffffffffffffffff1681526020018281526020019250505060405180910390a180600960008473ffffffffffffffffffffffffffffffffffffffff1673ffffffffffffffffffffffffffffffffffffffff1681526020019081526020016000206001016000828254019250508190555080840193505b8280600101935050610847565b6109e4611212565b5050505050565b6000809054906101000a900473ffffffffffffffffffffffffffffffffffffffff1673ffffffffffffffffffffffffffffffffffffffff163373ffffffffffffffffffffffffffffffffffffffff16141515610a4657600080fd5b60016004811115610a5357fe5b600a60009054906101000a900460ff166004811115610a6e57fe5b141515610a7a57600080fd5b60006006541115610b7a576002600a60006101000a81548160ff02191690836004811115610aa457fe5b02179055503373ffffffffffffffffffffffffffffffffffffffff166108fc6006549081150290604051600060405180830381858888f193505050501515610aeb57600080fd5b7f578e21d0b157d96ca63ed68a4b14ae51e6eee5a6fc77905ede446749fa5a1ab56000809054906101000a900473ffffffffffffffffffffffffffffffffffffffff16600654604051808373ffffffffffffffffffffffffffffffffffffffff1673ffffffffffffffffffffffffffffffffffffffff1681526020018281526020019250505060405180910390a15b565b600060075460015403905090565b60096020528060005260406000206000915090508060000154908060010154908060020154905083565b600b81815481101515610bc357fe5b90600052602060002090600202016000915090508060000154908060010154905082565b60065481565b6000809054906101000a900473ffffffffffffffffffffffffffffffffffffffff1681565b600c81815481101515610c2157fe5b90600052602060002090600202016000915090508060000154908060010154905082565b60025481565b6000806000809150600960008573ffffffffffffffffffffffffffffffffffffffff1673ffffffffffffffffffffffffffffffffffffffff1681526020019081526020016000209050600480811115610ca057fe5b600a60009054906101000a900460ff166004811115610cbb57fe5b1415610cd35780600201548160000154039150610d40565b60026004811115610ce057fe5b600a60009054906101000a900460ff166004811115610cfb57fe5b1480610d2c575060036004811115610d0f57fe5b600a60009054906101000a900460ff166004811115610d2a57fe5b145b15610d3f57806002015481600101540391505b5b8192505050919050565b6000809054906101000a900473ffffffffffffffffffffffffffffffffffffffff1673ffffffffffffffffffffffffffffffffffffffff163373ffffffffffffffffffffffffffffffffffffffff1614151515610da657600080fd5b610dae6105e3565b3411151515610dbc57600080fd5b6000600960003373ffffffffffffffffffffffffffffffffffffffff1673ffffffffffffffffffffffffffffffffffffffff168152602001908152602001600020600001541415610eed5760088054806001018281610e1b9190611303565b9160005260206000209001600033909190916101000a81548173ffffffffffffffffffffffffffffffffffffffff021916908373ffffffffffffffffffffffffffffffffffffffff16021790555050606060405190810160405280348152602001600081526020016000815250600960003373ffffffffffffffffffffffffffffffffffffffff1673ffffffffffffffffffffffffffffffffffffffff168152602001908152602001600020600082015181600001556020820151816001015560408201518160020155905050610f3e565b34600960003373ffffffffffffffffffffffffffffffffffffffff1673ffffffffffffffffffffffffffffffffffffffff168152602001908152602001600020600001600082825401925050819055505b346006600082825401925050819055507f47047d86227821f4ba4162b47a4e21f3751a6898df27767881baae61a5df54b93334604051808373ffffffffffffffffffffffffffffffffffffffff1673ffffffffffffffffffffffffffffffffffffffff1681526020018281526020019250505060405180910390a1610fc1611271565b565b60015481565b6000600880549050905090565b60058054600181600116156101000203166002900480601f01602080910402602001604051908101604052809291908181526020018280546001816001161561010002031660029004801561106c5780601f106110415761010080835404028352916020019161106c565b820191906000526020600020905b81548152906001019060200180831161104f57829003601f168201915b505050505081565b60035481565b600060045442101580156110b457506003600481111561109657fe5b600a60009054906101000a900460ff1660048111156110b157fe5b14155b905090565b60075481565b60006110ca33610c4b565b905060008111156111d15780600960003373ffffffffffffffffffffffffffffffffffffffff1673ffffffffffffffffffffffffffffffffffffffff168152602001908152602001600020600201600082825401925050819055503373ffffffffffffffffffffffffffffffffffffffff166108fc829081150290604051600060405180830381858888f19350505050151561116557600080fd5b7f5eb46cc574ef1abdbd52310ce761acbb5cbd48af34b53e4f32083f205c8a977e3382604051808373ffffffffffffffffffffffffffffffffffffffff1673ffffffffffffffffffffffffffffffffffffffff1681526020018281526020019250505060405180910390a15b50565b60006001546007541415156111fe57600154826000015184028115156111f657fe5b04905061120c565b816020015182600001510390505b92915050565b600154600754141561126f576003600a60006101000a81548160ff0219169083600481111561123d57fe5b02179055507f1062e18f9d21decf38f145fc9b437cd2c70e09252a729f9830b75ffdaaf3789460405160405180910390a15b565b6001546006541015156112cf576001600a60006101000a81548160ff0219169083600481111561129d57fe5b02179055507f3351ae6756a83898700959ab1a672004e55a70dd6e74a45a80835316af9c76a460405160405180910390a15b565b8154818355818115116112fe576002028160020283600052602060002091820191016112fd919061132f565b5b505050565b81548183558181151161132a57818360005260206000209182019101611329919061135e565b5b505050565b61135b91905b8082111561135757600080820160009055600182016000905550600201611335565b5090565b90565b61138091905b8082111561137c576000816000905550600101611364565b5090565b905600a165627a7a72305820dd36fb267f9b7e36e90fc74ddb485c0c7f4fb92d6c293f494e942c215b1da3d50029a165627a7a723058207eb68c94764f32046b9839083e5026cb9e8690a977faa84a80b0c5df099069e60029",
  "source": "pragma solidity ^0.4.15;\nimport \"./LoanContract.sol\";\n\ncontract LoanFactory {\n\n    address[] public loans;\n    address[] public borrowers; //may not be needed\n    mapping(address => address) public borrowerLoanIndex;\n\n    event LoanCreated(address loanAddress, address borrowerAddress);\n    \n    function loanCount() public view returns(uint256 _loanCount) {\n        return loans.length;\n    }\n  \n    // Gets the loan contract address for the given borrower address\n    function getLoanForBorrower (address _borrowerAddress) public view returns(address _loanAddress) {\n        return (borrowerLoanIndex[_borrowerAddress]);\n    }\n\n    // Creates a new loan contract with the data specified and adds it to the centralized loan repo\n    function create (\n        uint _loanAmountInEthers,\n        uint _repaymentDurationInDays,\n        string _ipfsHash\n    ) public returns(address _loanAddress) {\n        address borrowerAddress = msg.sender;\n        uint fundRaisingDurationInDays = 30; //default to 30 for now\n        address newLoanContract = new LoanContract(\n            borrowerAddress, \n            _loanAmountInEthers, \n            fundRaisingDurationInDays, \n            _repaymentDurationInDays,\n            _ipfsHash\n        );\n        loans.push(newLoanContract);\n        borrowers.push(borrowerAddress);\n        borrowerLoanIndex[borrowerAddress] = newLoanContract;\n        LoanCreated(newLoanContract, borrowerAddress);\n        return newLoanContract;\n    }\n}\n",
  "sourcePath": "/Users/jkb/Kiva/lending-dapp/contracts/LoanFactory.sol",
  "compiler": {
    "name": "solc",
    "version": "0.4.19+commit.c4cbbb05.Emscripten.clang"
  },
  "schemaVersion": "2.0.0",
  "updatedAt": "2018-03-13T18:29:27.483Z"
}