{
  "contractName": "LoanContract",
  "abi": [
    {
      "constant": true,
      "inputs": [],
      "name": "name",
      "outputs": [
        {
          "name": "",
          "type": "string"
        }
      ],
      "payable": false,
      "stateMutability": "view",
      "type": "function"
    },
    {
      "constant": true,
      "inputs": [],
      "name": "currentState",
      "outputs": [
        {
          "name": "",
          "type": "uint8"
        }
      ],
      "payable": false,
      "stateMutability": "view",
      "type": "function"
    },
    {
      "constant": true,
      "inputs": [],
      "name": "repaymentDeadline",
      "outputs": [
        {
          "name": "",
          "type": "uint256"
        }
      ],
      "payable": false,
      "stateMutability": "view",
      "type": "function"
    },
    {
      "constant": true,
      "inputs": [],
      "name": "amountLeftToFund",
      "outputs": [
        {
          "name": "",
          "type": "uint256"
        }
      ],
      "payable": false,
      "stateMutability": "view",
      "type": "function"
    },
    {
      "constant": false,
      "inputs": [
        {
          "name": "",
          "type": "uint256"
        }
      ],
      "name": "makeExpired",
      "outputs": [
        {
          "name": "",
          "type": "address"
        }
      ],
      "payable": false,
      "stateMutability": "nonpayable",
      "type": "function"
    },
    {
      "constant": true,
      "inputs": [
        {
          "name": "",
          "type": "uint256"
        }
      ],
      "name": "lenderAddresses",
      "outputs": [
        {
          "name": "",
          "type": "address"
        }
      ],
      "payable": false,
      "stateMutability": "view",
      "type": "function"
    },
    {
      "constant": false,
      "inputs": [
        {
          "name": "",
          "type": "address"
        }
      ],
      "name": "repay",
      "outputs": [
        {
          "name": "",
          "type": "uint256"
        },
        {
          "name": "amountRepaid",
          "type": "uint256"
        }
      ],
      "payable": true,
      "stateMutability": "payable",
      "type": "function"
    },
    {
      "constant": true,
      "inputs": [
        {
          "name": "",
          "type": "address"
        }
      ],
      "name": "use",
      "outputs": [
        {
          "name": "",
          "type": "string"
        },
        {
          "name": "amountRepaid",
          "type": "uint256"
        }
      ],
      "payable": false,
      "stateMutability": "view",
      "type": "function"
    },
    {
      "constant": false,
      "inputs": [
        {
          "name": "",
          "type": "address"
        }
      ],
      "name": "borrowerWithdraw",
      "outputs": [
        {
          "name": "amountLent",
          "type": "uint256"
        },
        {
          "name": "amountRepaid",
          "type": "uint256"
        },
        {
          "name": "amountWithdrawn",
          "type": "uint256"
        }
      ],
      "payable": false,
      "stateMutability": "nonpayable",
      "type": "function"
    },
    {
      "constant": true,
      "inputs": [],
      "name": "amountLeftToRepay",
      "outputs": [
        {
          "name": "",
          "type": "uint256"
        }
      ],
      "payable": false,
      "stateMutability": "view",
      "type": "function"
    },
    {
      "constant": false,
      "inputs": [
        {
          "name": "",
          "type": "address"
        }
      ],
      "name": "lenderAccounts",
      "outputs": [
        {
          "name": "amountLent",
          "type": "uint256"
        },
        {
          "name": "amountRepaid",
          "type": "uint256"
        },
        {
          "name": "amountWithdrawn",
          "type": "uint256"
        }
      ],
      "payable": false,
      "stateMutability": "view",
      "type": "function"
    },
    {
      "constant": false,
      "inputs": [],
      "name": "amountRaised",
      "outputs": [
        {
          "name": "",
          "type": "uint256"
        }
      ],
      "payable": false,
      "stateMutability": "view",
      "type": "function"
    },
    {
      "constant": true,
      "inputs": [],
      "name": "repaymentDuration",
      "outputs": [
        {
          "name": "",
          "type": "uint256"
        }
      ],
      "payable": false,
      "stateMutability": "view",
      "type": "function"
    },
    {
      "constant": true,
      "inputs": [
        {
          "name": "lenderAddr",
          "type": "address"
        }
      ],
      "name": "amountLenderCanWithdraw",
      "outputs": [
        {
          "name": "",
          "type": "uint256"
        }
      ],
      "payable": false,
      "stateMutability": "view",
      "type": "function"
    },
    {
      "inputs": [],
      "payable": true,
      "stateMutability": "payable",
      "type": "function",
      "constant": false,
      "name": "lend",
      "outputs": [
        {
          "name": "",
          "type": "uint256"
        }
      ]
    },
    {
      "payable": false,
      "stateMutability": "view",
      "type": "function",
      "constant": true,
      "inputs": [],
      "name": "loanAmount",
      "outputs": [
        {
          "name": "",
          "type": "uint256"
        }
      ]
    },
    {
      "anonymous": false,
      "inputs": [
        {
          "indexed": false,
          "name": "_borrowerAddress",
          "type": "address"
        },
        {
          "indexed": false,
          "name": "loanAmountInEthers",
          "type": "uint256"
        },
        {
          "name": "fundRaisingDurationInDays",
          "type": "uint256"
        },
        {
          "name": "repaymentDurationInDays",
          "type": "uint256"
        }
      ],
      "name": "numLenders",
      "type": "function",
      "payable": false,
      "stateMutability": "view",
      "constant": true,
      "outputs": [
        {
          "name": "",
          "type": "uint256"
        }
      ]
    },
    {
      "anonymous": false,
      "inputs": [
        {
          "indexed": false,
          "name": "addr",
          "type": "address"
        },
        {
          "indexed": false,
          "name": "amount",
          "type": "uint256"
        }
      ],
      "name": "fundRaisingDeadline",
      "type": "function",
      "payable": false,
      "stateMutability": "view",
      "constant": true,
      "outputs": [
        {
          "name": "",
          "type": "uint256"
        }
      ]
    },
    {
      "anonymous": false,
      "inputs": [
        {
          "indexed": false,
          "name": "_borrowerAddress",
          "type": "address"
        },
        {
          "indexed": false,
          "name": "loanAmountInEthers",
          "type": "uint256"
        },
        {
          "name": "fundRaisingDurationInDays",
          "type": "uint256"
        },
        {
          "name": "repaymentDurationInDays",
          "type": "uint256"
        }
      ],
      "name": "isDelinquent",
      "type": "function",
      "payable": false,
      "stateMutability": "view",
      "constant": true,
      "outputs": [
        {
          "name": "",
          "type": "bool"
        }
      ]
    },
    {
      "anonymous": false,
      "inputs": [
        {
          "indexed": false,
          "name": "addr",
          "type": "address"
        },
        {
          "indexed": false,
          "name": "amount",
          "type": "uint256"
        }
      ],
      "name": "amountRepaid",
      "type": "function",
      "constant": true,
      "outputs": [
        {
          "name": "",
          "type": "uint256"
        }
      ],
      "payable": false,
      "stateMutability": "view"
    },
    {
      "anonymous": false,
      "inputs": [
        {
          "indexed": false,
          "name": "_borrowerAddress",
          "type": "address"
        },
        {
          "indexed": false,
          "name": "_loanAmountInEthers",
          "type": "uint256"
        },
        {
          "name": "_fundRaisingDurationInDays",
          "type": "uint256"
        },
        {
          "name": "_repaymentDurationInDays",
          "type": "uint256"
        },
        {
          "name": "_name",
          "type": "string"
        },
        {
          "name": "_use",
          "type": "string"
        }
      ],
      "name": "lenderWithdraw",
      "type": "function",
      "payable": false,
      "stateMutability": "nonpayable",
      "constant": false,
      "outputs": []
    },
    {
      "anonymous": false,
      "inputs": [
        {
          "indexed": false,
          "name": "_borrowerAddress",
          "type": "address"
        },
        {
          "indexed": false,
          "name": "_loanAmountInEthers",
          "type": "uint256"
        },
        {
          "name": "_fundRaisingDurationInDays",
          "type": "uint256"
        },
        {
          "name": "_repaymentDurationInDays",
          "type": "uint256"
        },
        {
          "name": "_name",
          "type": "string"
        },
        {
          "name": "_use",
          "type": "string"
        }
      ],
      "name": "LentToLoan",
      "type": "constructor",
      "payable": false,
      "stateMutability": "nonpayable"
    },
    {
      "anonymous": false,
      "inputs": [
        {
          "indexed": false,
          "name": "addr",
          "type": "address"
        },
        {
          "indexed": false,
          "name": "amount",
          "type": "uint256"
        }
      ],
      "name": "LentToLoan",
      "type": "event"
    },
    {
      "anonymous": false,
      "inputs": [
        {
          "indexed": false,
          "name": "addr",
          "type": "address"
        },
        {
          "indexed": false,
          "name": "amount",
          "type": "uint256"
        }
      ],
      "name": "DisbursedToBorrower",
      "type": "event"
    },
    {
      "anonymous": false,
      "inputs": [
        {
          "indexed": false,
          "name": "addr",
          "type": "address"
        },
        {
          "indexed": false,
          "name": "amount",
          "type": "uint256"
        }
      ],
      "name": "RepaidByBorrower",
      "type": "event"
    },
    {
      "anonymous": false,
      "inputs": [
        {
          "indexed": false,
          "name": "addr",
          "type": "address"
        },
        {
          "indexed": false,
          "name": "amount",
          "type": "uint256"
        }
      ],
      "name": "RepaidToLender",
      "type": "event"
    },
    {
      "anonymous": false,
      "inputs": [
        {
          "indexed": false,
          "name": "addr",
          "type": "address"
        },
        {
          "indexed": false,
          "name": "amount",
          "type": "uint256"
        }
      ],
      "name": "SentBack",
      "type": "event"
    },
    {
      "anonymous": false,
      "inputs": [
        {
          "indexed": false,
          "name": "addr",
          "type": "address"
        },
        {
          "indexed": false,
          "name": "amount",
          "type": "uint256"
        }
      ],
      "name": "LenderWithdrew",
      "type": "event"
    },
    {
      "anonymous": false,
      "inputs": [],
      "name": "LoanFunded",
      "type": "event"
    },
    {
      "anonymous": false,
      "inputs": [],
      "name": "LoanExpired",
      "type": "event"
    },
    {
      "anonymous": false,
      "inputs": [],
      "name": "LoanRepaid",
      "type": "event"
    }
  ],
  "bytecode": "0x606060405234156200001057600080fd5b604051620015fa380380620015fa83398101604052808051906020019091908051906020019091908051906020019091908051906020019091908051820191906020018051820191905050856000806101000a81548173ffffffffffffffffffffffffffffffffffffffff021916908373ffffffffffffffffffffffffffffffffffffffff160217905550670de0b6b3a76400008502600181905550826002819055506201518084024201600381905550620151808302600354016004819055508160059080519060200190620000e99291906200010f565b508060069080519060200190620001029291906200010f565b50505050505050620001be565b828054600181600116156101000203166002900490600052602060002090601f016020900481019282601f106200015257805160ff191683800117855562000183565b8280016001018555821562000183579182015b828111156200018257825182559160200191906001019062000165565b5b50905062000192919062000196565b5090565b620001bb91905b80821115620001b75760008160009055506001016200019d565b5090565b90565b61142c80620001ce6000396000f30060606040526004361061011d576000357c0100000000000000000000000000000000000000000000000000000000900463ffffffff16806306fdde03146101225780630c3f6acf146101b057806319cc3aaa146101e7578063281380e81461021057806328b4e856146102395780632d6963ce1461024e578063402d8883146102b15780634c97d71a146102bb5780635cdb9829146103495780635edf0c9e1461035e5780635f97a7d8146103875780637b3e5e7b146103e25780638e3623941461040b57806395e723141461043457806397dffc61146104815780639d585f7f1461048b578063bb927c46146104b4578063cbc9130e146104dd578063d0bf4de614610506578063ee86afd814610533578063f14f6e171461055c575b600080fd5b341561012d57600080fd5b610135610571565b6040518080602001828103825283818151815260200191508051906020019080838360005b8381101561017557808201518184015260208101905061015a565b50505050905090810190601f1680156101a25780820380516001836020036101000a031916815260200191505b509250505060405180910390f35b34156101bb57600080fd5b6101c361060f565b604051808260048111156101d357fe5b60ff16815260200191505060405180910390f35b34156101f257600080fd5b6101fa610622565b6040518082815260200191505060405180910390f35b341561021b57600080fd5b610223610628565b6040518082815260200191505060405180910390f35b341561024457600080fd5b61024c610636565b005b341561025957600080fd5b61026f6004808035906020019091905050610850565b604051808273ffffffffffffffffffffffffffffffffffffffff1673ffffffffffffffffffffffffffffffffffffffff16815260200191505060405180910390f35b6102b961088f565b005b34156102c657600080fd5b6102ce610b54565b6040518080602001828103825283818151815260200191508051906020019080838360005b8381101561030e5780820151818401526020810190506102f3565b50505050905090810190601f16801561033b5780820380516001836020036101000a031916815260200191505b509250505060405180910390f35b341561035457600080fd5b61035c610bf2565b005b341561036957600080fd5b610371610d83565b6040518082815260200191505060405180910390f35b341561039257600080fd5b6103be600480803573ffffffffffffffffffffffffffffffffffffffff16906020019091905050610d91565b60405180848152602001838152602001828152602001935050505060405180910390f35b34156103ed57600080fd5b6103f5610dbb565b6040518082815260200191505060405180910390f35b341561041657600080fd5b61041e610dc1565b6040518082815260200191505060405180910390f35b341561043f57600080fd5b61046b600480803573ffffffffffffffffffffffffffffffffffffffff16906020019091905050610dc7565b6040518082815260200191505060405180910390f35b610489610ec6565b005b341561049657600080fd5b61049e61113f565b6040518082815260200191505060405180910390f35b34156104bf57600080fd5b6104c7611145565b6040518082815260200191505060405180910390f35b34156104e857600080fd5b6104f0611152565b6040518082815260200191505060405180910390f35b341561051157600080fd5b610519611158565b604051808215151515815260200191505060405180910390f35b341561053e57600080fd5b610546611197565b6040518082815260200191505060405180910390f35b341561056757600080fd5b61056f61119d565b005b60058054600181600116156101000203166002900480601f0160208091040260200160405190810160405280929190818152602001828054600181600116156101000203166002900480156106075780601f106105dc57610100808354040283529160200191610607565b820191906000526020600020905b8154815290600101906020018083116105ea57829003601f168201915b505050505081565b600b60009054906101000a900460ff1681565b60045481565b600060075460015403905090565b6000806003544210158015610670575060048081111561065257fe5b600b60009054906101000a900460ff16600481111561066d57fe5b14155b1561084c576004600b60006101000a81548160ff0219169083600481111561069457fe5b02179055507f5dc919cafc7dd3f912b1ba505941b4eb1c8f4fd4bea581b22982d7d0feef549c60405160405180910390a1600091505b60098054905082101561084b576009828154811015156106e657fe5b906000526020600020900160009054906101000a900473ffffffffffffffffffffffffffffffffffffffff1690508073ffffffffffffffffffffffffffffffffffffffff166108fc600a60008473ffffffffffffffffffffffffffffffffffffffff1673ffffffffffffffffffffffffffffffffffffffff168152602001908152602001600020600001549081150290604051600060405180830381858888f193505050501561083e577f5f1d3e8a00979c6a9305039148c35f8fa408d3292c93f865cad76e32ae6ce0bb81600a60008473ffffffffffffffffffffffffffffffffffffffff1673ffffffffffffffffffffffffffffffffffffffff16815260200190815260200160002060000154604051808373ffffffffffffffffffffffffffffffffffffffff1673ffffffffffffffffffffffffffffffffffffffff1681526020018281526020019250505060405180910390a15b81806001019250506106ca565b5b5050565b60098181548110151561085f57fe5b90600052602060002090016000915054906101000a900473ffffffffffffffffffffffffffffffffffffffff1681565b60008060008060008060009054906101000a900473ffffffffffffffffffffffffffffffffffffffff1673ffffffffffffffffffffffffffffffffffffffff163373ffffffffffffffffffffffffffffffffffffffff161415156108f257600080fd5b6108fa610d83565b341115151561090857600080fd5b346008600082825401925050819055507f9540628bcc956d1875c390fc9c9937464c5d6a3bcef396c4c48c262c25f89e796000809054906101000a900473ffffffffffffffffffffffffffffffffffffffff1634604051808373ffffffffffffffffffffffffffffffffffffffff1673ffffffffffffffffffffffffffffffffffffffff1681526020018281526020019250505060405180910390a134945060009350600092505b600980549050831015610b45576009838154811015156109cc57fe5b906000526020600020900160009054906101000a900473ffffffffffffffffffffffffffffffffffffffff169150610a6c85600a60008573ffffffffffffffffffffffffffffffffffffffff1673ffffffffffffffffffffffffffffffffffffffff1681526020019081526020016000206060604051908101604052908160008201548152602001600182015481526020016002820154815250506112b2565b90506000811115610b38577f5f1d3e8a00979c6a9305039148c35f8fa408d3292c93f865cad76e32ae6ce0bb8282604051808373ffffffffffffffffffffffffffffffffffffffff1673ffffffffffffffffffffffffffffffffffffffff1681526020018281526020019250505060405180910390a180600a60008473ffffffffffffffffffffffffffffffffffffffff1673ffffffffffffffffffffffffffffffffffffffff1681526020019081526020016000206001016000828254019250508190555080840193505b82806001019350506109b0565b610b4d6112f0565b5050505050565b60068054600181600116156101000203166002900480601f016020809104026020016040519081016040528092919081815260200182805460018160011615610100020316600290048015610bea5780601f10610bbf57610100808354040283529160200191610bea565b820191906000526020600020905b815481529060010190602001808311610bcd57829003601f168201915b505050505081565b6000809054906101000a900473ffffffffffffffffffffffffffffffffffffffff1673ffffffffffffffffffffffffffffffffffffffff163373ffffffffffffffffffffffffffffffffffffffff16141515610c4d57600080fd5b60016004811115610c5a57fe5b600b60009054906101000a900460ff166004811115610c7557fe5b141515610c8157600080fd5b60006007541115610d81573373ffffffffffffffffffffffffffffffffffffffff166108fc6007549081150290604051600060405180830381858888f193505050501515610cce57600080fd5b7f578e21d0b157d96ca63ed68a4b14ae51e6eee5a6fc77905ede446749fa5a1ab56000809054906101000a900473ffffffffffffffffffffffffffffffffffffffff16600754604051808373ffffffffffffffffffffffffffffffffffffffff1673ffffffffffffffffffffffffffffffffffffffff1681526020018281526020019250505060405180910390a16002600b60006101000a81548160ff02191690836004811115610d7b57fe5b02179055505b565b600060085460015403905090565b600a6020528060005260406000206000915090508060000154908060010154908060020154905083565b60075481565b60025481565b6000806000809150600a60008573ffffffffffffffffffffffffffffffffffffffff1673ffffffffffffffffffffffffffffffffffffffff1681526020019081526020016000209050600480811115610e1c57fe5b600b60009054906101000a900460ff166004811115610e3757fe5b1415610e4f5780600201548160000154039150610ebc565b60026004811115610e5c57fe5b600b60009054906101000a900460ff166004811115610e7757fe5b1480610ea8575060036004811115610e8b57fe5b600b60009054906101000a900460ff166004811115610ea657fe5b145b15610ebb57806002015481600101540391505b5b8192505050919050565b6000809054906101000a900473ffffffffffffffffffffffffffffffffffffffff1673ffffffffffffffffffffffffffffffffffffffff163373ffffffffffffffffffffffffffffffffffffffff1614151515610f2257600080fd5b610f2a610628565b3411151515610f3857600080fd5b6000600a60003373ffffffffffffffffffffffffffffffffffffffff1673ffffffffffffffffffffffffffffffffffffffff1681526020019081526020016000206000015414156110695760098054806001018281610f9791906113af565b9160005260206000209001600033909190916101000a81548173ffffffffffffffffffffffffffffffffffffffff021916908373ffffffffffffffffffffffffffffffffffffffff16021790555050606060405190810160405280348152602001600081526020016000815250600a60003373ffffffffffffffffffffffffffffffffffffffff1673ffffffffffffffffffffffffffffffffffffffff1681526020019081526020016000206000820151816000015560208201518160010155604082015181600201559050506110ba565b34600a60003373ffffffffffffffffffffffffffffffffffffffff1673ffffffffffffffffffffffffffffffffffffffff168152602001908152602001600020600001600082825401925050819055505b346007600082825401925050819055507f47047d86227821f4ba4162b47a4e21f3751a6898df27767881baae61a5df54b93334604051808373ffffffffffffffffffffffffffffffffffffffff1673ffffffffffffffffffffffffffffffffffffffff1681526020018281526020019250505060405180910390a161113d61134f565b565b60015481565b6000600980549050905090565b60035481565b6000600454421015801561119257506003600481111561117457fe5b600b60009054906101000a900460ff16600481111561118f57fe5b14155b905090565b60085481565b60006111a833610dc7565b905060008111156112af573373ffffffffffffffffffffffffffffffffffffffff166108fc829081150290604051600060405180830381858888f1935050505015156111f357600080fd5b80600a60003373ffffffffffffffffffffffffffffffffffffffff1673ffffffffffffffffffffffffffffffffffffffff168152602001908152602001600020600201600082825401925050819055507f5eb46cc574ef1abdbd52310ce761acbb5cbd48af34b53e4f32083f205c8a977e3382604051808373ffffffffffffffffffffffffffffffffffffffff1673ffffffffffffffffffffffffffffffffffffffff1681526020018281526020019250505060405180910390a15b50565b60006001546008541415156112dc57600154826000015184028115156112d457fe5b0490506112ea565b816020015182600001510390505b92915050565b600154600854141561134d576003600b60006101000a81548160ff0219169083600481111561131b57fe5b02179055507f1062e18f9d21decf38f145fc9b437cd2c70e09252a729f9830b75ffdaaf3789460405160405180910390a15b565b6001546007541015156113ad576001600b60006101000a81548160ff0219169083600481111561137b57fe5b02179055507f3351ae6756a83898700959ab1a672004e55a70dd6e74a45a80835316af9c76a460405160405180910390a15b565b8154818355818115116113d6578183600052602060002091820191016113d591906113db565b5b505050565b6113fd91905b808211156113f95760008160009055506001016113e1565b5090565b905600a165627a7a7230582096519a8424a06d1f5dc77596e20c15c35943221b5b34a7d7812af1bf072b39420029",
  "source": "pragma solidity ^0.4.15;\n/*\n    A simple loan contract which allows lenders to lend and borrowers to repay\n*/\ncontract LoanContract {\n    //Constructor vars\n    address borrowerAddress;\n    uint public loanAmount;\n    uint public repaymentDuration;\n    uint public fundRaisingDeadline;\n    uint public repaymentDeadline;\n    string public name;\n    string public use;\n    \n    //Useful vars\n    uint public amountRaised;\n    uint public amountRepaid;\n    /* Since solidity doesn't allow iterating over mapping, we need 2 data structures to represent lender accounts */\n    address[] public lenderAddresses;\n    mapping(address => LenderAccount) public lenderAccounts;\n    enum State {raising, funded, repaying, repaid, expired} //default?\n    State public currentState;\n    struct LenderAccount {\n        uint amountLent;\n        uint amountRepaid;\n        uint amountWithdrawn;\n    }\n    \n    //Events\n    event LentToLoan(address addr, uint amount);\n    event DisbursedToBorrower(address addr, uint amount);\n    event RepaidByBorrower(address addr, uint amount);\n    event RepaidToLender(address addr, uint amount);\n    event SentBack(address addr, uint amount);\n    event LenderWithdrew(address addr, uint amount);\n    event LoanFunded();\n    event LoanExpired();\n    event LoanRepaid();\n    \n    // Constructor\n    function LoanContract(\n        address _borrowerAddress, \n        uint _loanAmountInEthers,\n        uint _fundRaisingDurationInDays,\n        uint _repaymentDurationInDays,\n        string _name,\n        string _use\n    ) public {\n        borrowerAddress = _borrowerAddress;\n        loanAmount = _loanAmountInEthers * 1 ether;\n        repaymentDuration = _repaymentDurationInDays;\n        fundRaisingDeadline = now + _fundRaisingDurationInDays * 1 days;\n        repaymentDeadline = fundRaisingDeadline + _repaymentDurationInDays * 1 days;\n        name = _name;\n        use = _use;\n    }\n    \n    // Lender sends wei to the contract, we store how much they lent\n    function lend() payable public {\n        // Don't allow borrowers to lend, or allow overfunding\n        require(msg.sender != borrowerAddress);\n        require(msg.value <= amountLeftToFund());\n        \n        // Handle lender lending twice\n        if (lenderAccounts[msg.sender].amountLent == 0) {\n            lenderAddresses.push(msg.sender);\n            lenderAccounts[msg.sender] = LenderAccount(msg.value, 0, 0);\n        } else {\n            lenderAccounts[msg.sender].amountLent += msg.value;\n        }\n        \n        amountRaised += msg.value;\n        LentToLoan(msg.sender, msg.value);\n        \n        checkLoanFunded();\n    }\n    \n    // If we have raised the full loan amount, then transition to funded\n    function checkLoanFunded() private {\n        if (amountRaised >= loanAmount) {\n            currentState = State.funded;\n            LoanFunded();\n        }\n    }\n    \n    // The recommended pattern for disbursals is to have the borrower withdraw\n    function borrowerWithdraw() public {\n         // Only borrowers can withdraw, and only in the funded state\n        require(msg.sender == borrowerAddress);\n        require(currentState == State.funded);\n        \n        if (amountRaised > 0) {\n            msg.sender.transfer(amountRaised);\n            DisbursedToBorrower(borrowerAddress, amountRaised);\n            currentState = State.repaying;\n        }\n    }\n    \n    // Borrower sends wei to the contract, we record the amount repaid\n    function repay() payable public {\n        // Only borrowers can repay, and can't repay more than the amount left\n        require(msg.sender == borrowerAddress);\n        require(msg.value <= amountLeftToRepay());\n        \n        amountRepaid += msg.value;\n        RepaidByBorrower(borrowerAddress, msg.value);\n        \n        // Distribute wei evenly to lenders, if there's a remainder we'll distribute at the end\n        uint amountToDistribute = msg.value;\n        uint amountDistributed = 0;\n        for (uint i = 0; i < lenderAddresses.length; i++) {\n            address currentLender = lenderAddresses[i];\n            uint amountForLender = getAmountForLender(amountToDistribute, lenderAccounts[currentLender]);\n            if (amountForLender > 0) {\n                RepaidToLender(currentLender, amountForLender);\n                lenderAccounts[currentLender].amountRepaid += amountForLender;\n                amountDistributed += amountForLender;\n            }\n        }\n        \n        checkLoanRepaid();\n    }\n    \n    function getAmountForLender(uint amountToDistribute, LenderAccount account) private view returns (uint) {\n        if (amountRepaid != loanAmount) {\n            // Regular case, division in solidity throws away the remainder\n            return (amountToDistribute * account.amountLent) / loanAmount;\n        } else {\n            // Last repayment case, make sure everyone is topped up\n            return account.amountLent - account.amountRepaid;\n        }\n    }\n    \n    function checkLoanRepaid() private {\n        if (amountRepaid == loanAmount) {\n            currentState = State.repaid;\n            LoanRepaid();\n        }\n    }\n    \n    // The recommended pattern for lender's to recieve repayments is to have them withdraw\n    function lenderWithdraw() public {\n        uint amountToWithdraw = amountLenderCanWithdraw(msg.sender);\n        if (amountToWithdraw > 0) {\n            msg.sender.transfer(amountToWithdraw);\n            lenderAccounts[msg.sender].amountWithdrawn += amountToWithdraw;\n            LenderWithdrew(msg.sender, amountToWithdraw);\n        }\n    }\n    \n    // Calculates how much the lender can withdraw based on loan state\n    function amountLenderCanWithdraw(address lenderAddr) public view returns (uint) {\n        uint amountCanWithdraw = 0;\n        LenderAccount storage lenderAccount = lenderAccounts[lenderAddr];\n        if (currentState == State.expired) {\n            /* If the loan expired, lenders can withdraw their contributed amount*/\n            amountCanWithdraw = lenderAccount.amountLent - lenderAccount.amountWithdrawn;\n        } else if (currentState == State.repaying || currentState == State.repaid) {\n            /* If the loan is repaying or fully repaid the lenders can withdraw however much has been repaid to them */\n            amountCanWithdraw = lenderAccount.amountRepaid - lenderAccount.amountWithdrawn;\n        }\n        return amountCanWithdraw;\n    }\n    \n    /* Useful constant functions */\n    \n    function numLenders() public view returns (uint) {\n        return lenderAddresses.length;\n    }\n    \n    function amountLeftToFund() public view returns (uint) {\n        return loanAmount - amountRaised;\n    }\n    \n    function amountLeftToRepay() public view returns (uint) {\n        return loanAmount - amountRepaid;\n    }\n    \n    function isDelinquent() public view returns (bool) {\n        return (now >= repaymentDeadline && currentState != State.repaid);\n    }\n    \n    // Anyone can call this, but it will probably be an admin\n    // If the expiration date has passed, send wei back to lenders\n    function makeExpired() public {\n         if (now >= fundRaisingDeadline && currentState != State.expired) {\n            currentState = State.expired;\n            LoanExpired();\n            for (uint i = 0; i < lenderAddresses.length; i++) {\n                address currentLender = lenderAddresses[i];\n                if (currentLender.send(lenderAccounts[currentLender].amountLent)) {\n                    RepaidToLender(currentLender, lenderAccounts[currentLender].amountLent);\n                } //@todo error case?\n            }\n        }\n    }\n}",
  "sourcePath": "/Users/jsaur/VMs/projects/truffle/lending-dapp/contracts/LoanContract.sol",
  "compiler": {
    "name": "solc",
    "version": "0.4.18+commit.9cf6e910.Emscripten.clang"
  },
  "schemaVersion": "1.0.1",
  "updatedAt": "2017-11-07T07:34:12.409Z"
}