{
  "contractName": "LoanContract",
  "abi": [
    {
      "constant": true,
      "inputs": [],
      "name": "name",
      "outputs": [
        {
          "name": "",
          "type": "string"
        }
      ],
      "payable": false,
      "stateMutability": "view",
      "type": "function"
    },
    {
      "constant": true,
      "inputs": [],
      "name": "currentState",
      "outputs": [
        {
          "name": "",
          "type": "uint8"
        }
      ],
      "payable": false,
      "stateMutability": "view",
      "type": "function"
    },
    {
      "constant": true,
      "inputs": [],
      "name": "repaymentDeadline",
      "outputs": [
        {
          "name": "",
          "type": "uint256"
        }
      ],
      "payable": false,
      "stateMutability": "view",
      "type": "function"
    },
    {
      "constant": true,
      "inputs": [],
      "name": "amountLeftToFund",
      "outputs": [
        {
          "name": "",
          "type": "uint256"
        }
      ],
      "payable": false,
      "stateMutability": "view",
      "type": "function"
    },
    {
      "constant": false,
      "inputs": [],
      "name": "makeExpired",
      "outputs": [],
      "payable": false,
      "stateMutability": "nonpayable",
      "type": "function"
    },
    {
      "constant": true,
      "inputs": [
        {
          "name": "",
          "type": "uint256"
        }
      ],
      "name": "lenderAddresses",
      "outputs": [
        {
          "name": "",
          "type": "address"
        }
      ],
      "payable": false,
      "stateMutability": "view",
      "type": "function"
    },
    {
      "constant": false,
      "inputs": [],
      "name": "repay",
      "outputs": [],
      "payable": true,
      "stateMutability": "payable",
      "type": "function"
    },
    {
      "constant": true,
      "inputs": [],
      "name": "use",
      "outputs": [
        {
          "name": "",
          "type": "string"
        }
      ],
      "payable": false,
      "stateMutability": "view",
      "type": "function"
    },
    {
      "constant": false,
      "inputs": [],
      "name": "borrowerWithdraw",
      "outputs": [],
      "payable": false,
      "stateMutability": "nonpayable",
      "type": "function"
    },
    {
      "constant": true,
      "inputs": [],
      "name": "amountLeftToRepay",
      "outputs": [
        {
          "name": "",
          "type": "uint256"
        }
      ],
      "payable": false,
      "stateMutability": "view",
      "type": "function"
    },
    {
      "constant": true,
      "inputs": [
        {
          "name": "",
          "type": "address"
        }
      ],
      "name": "lenderAccounts",
      "outputs": [
        {
          "name": "amountLent",
          "type": "uint256"
        },
        {
          "name": "amountRepaid",
          "type": "uint256"
        },
        {
          "name": "amountWithdrawn",
          "type": "uint256"
        }
      ],
      "payable": false,
      "stateMutability": "view",
      "type": "function"
    },
    {
      "constant": true,
      "inputs": [
        {
          "name": "",
          "type": "uint256"
        }
      ],
      "name": "schedule",
      "outputs": [
        {
          "name": "date",
          "type": "uint256"
        },
        {
          "name": "amount",
          "type": "uint256"
        }
      ],
      "payable": false,
      "stateMutability": "view",
      "type": "function"
    },
    {
      "constant": true,
      "inputs": [],
      "name": "amountRaised",
      "outputs": [
        {
          "name": "",
          "type": "uint256"
        }
      ],
      "payable": false,
      "stateMutability": "view",
      "type": "function"
    },
    {
      "constant": true,
      "inputs": [],
      "name": "borrowerAddress",
      "outputs": [
        {
          "name": "",
          "type": "address"
        }
      ],
      "payable": false,
      "stateMutability": "view",
      "type": "function"
    },
    {
      "constant": true,
      "inputs": [
        {
          "name": "",
          "type": "uint256"
        }
      ],
      "name": "payments",
      "outputs": [
        {
          "name": "date",
          "type": "uint256"
        },
        {
          "name": "amount",
          "type": "uint256"
        }
      ],
      "payable": false,
      "stateMutability": "view",
      "type": "function"
    },
    {
      "constant": true,
      "inputs": [],
      "name": "repaymentDuration",
      "outputs": [
        {
          "name": "",
          "type": "uint256"
        }
      ],
      "payable": false,
      "stateMutability": "view",
      "type": "function"
    },
    {
      "constant": true,
      "inputs": [
        {
          "name": "lenderAddr",
          "type": "address"
        }
      ],
      "name": "amountLenderCanWithdraw",
      "outputs": [
        {
          "name": "",
          "type": "uint256"
        }
      ],
      "payable": false,
      "stateMutability": "view",
      "type": "function"
    },
    {
      "constant": false,
      "inputs": [],
      "name": "lend",
      "outputs": [],
      "payable": true,
      "stateMutability": "payable",
      "type": "function"
    },
    {
      "constant": true,
      "inputs": [],
      "name": "loanAmount",
      "outputs": [
        {
          "name": "",
          "type": "uint256"
        }
      ],
      "payable": false,
      "stateMutability": "view",
      "type": "function"
    },
    {
      "constant": true,
      "inputs": [],
      "name": "numLenders",
      "outputs": [
        {
          "name": "",
          "type": "uint256"
        }
      ],
      "payable": false,
      "stateMutability": "view",
      "type": "function"
    },
    {
      "constant": true,
      "inputs": [],
      "name": "fundRaisingDeadline",
      "outputs": [
        {
          "name": "",
          "type": "uint256"
        }
      ],
      "payable": false,
      "stateMutability": "view",
      "type": "function"
    },
    {
      "constant": true,
      "inputs": [],
      "name": "isDelinquent",
      "outputs": [
        {
          "name": "",
          "type": "bool"
        }
      ],
      "payable": false,
      "stateMutability": "view",
      "type": "function"
    },
    {
      "constant": true,
      "inputs": [],
      "name": "amountRepaid",
      "outputs": [
        {
          "name": "",
          "type": "uint256"
        }
      ],
      "payable": false,
      "stateMutability": "view",
      "type": "function"
    },
    {
      "constant": false,
      "inputs": [],
      "name": "lenderWithdraw",
      "outputs": [],
      "payable": false,
      "stateMutability": "nonpayable",
      "type": "function"
    },
    {
      "inputs": [
        {
          "name": "_borrowerAddress",
          "type": "address"
        },
        {
          "name": "_loanAmountInEthers",
          "type": "uint256"
        },
        {
          "name": "_fundRaisingDurationInDays",
          "type": "uint256"
        },
        {
          "name": "_repaymentDurationInDays",
          "type": "uint256"
        },
        {
          "name": "_name",
          "type": "string"
        },
        {
          "name": "_use",
          "type": "string"
        }
      ],
      "payable": false,
      "stateMutability": "nonpayable",
      "type": "constructor"
    },
    {
      "anonymous": false,
      "inputs": [
        {
          "indexed": false,
          "name": "addr",
          "type": "address"
        },
        {
          "indexed": false,
          "name": "amount",
          "type": "uint256"
        }
      ],
      "name": "LentToLoan",
      "type": "event"
    },
    {
      "anonymous": false,
      "inputs": [
        {
          "indexed": false,
          "name": "addr",
          "type": "address"
        },
        {
          "indexed": false,
          "name": "amount",
          "type": "uint256"
        }
      ],
      "name": "DisbursedToBorrower",
      "type": "event"
    },
    {
      "anonymous": false,
      "inputs": [
        {
          "indexed": false,
          "name": "addr",
          "type": "address"
        },
        {
          "indexed": false,
          "name": "amount",
          "type": "uint256"
        }
      ],
      "name": "RepaidByBorrower",
      "type": "event"
    },
    {
      "anonymous": false,
      "inputs": [
        {
          "indexed": false,
          "name": "addr",
          "type": "address"
        },
        {
          "indexed": false,
          "name": "amount",
          "type": "uint256"
        }
      ],
      "name": "RepaidToLender",
      "type": "event"
    },
    {
      "anonymous": false,
      "inputs": [
        {
          "indexed": false,
          "name": "addr",
          "type": "address"
        },
        {
          "indexed": false,
          "name": "amount",
          "type": "uint256"
        }
      ],
      "name": "SentBack",
      "type": "event"
    },
    {
      "anonymous": false,
      "inputs": [
        {
          "indexed": false,
          "name": "addr",
          "type": "address"
        },
        {
          "indexed": false,
          "name": "amount",
          "type": "uint256"
        }
      ],
      "name": "LenderWithdrew",
      "type": "event"
    },
    {
      "anonymous": false,
      "inputs": [],
      "name": "LoanFunded",
      "type": "event"
    },
    {
      "anonymous": false,
      "inputs": [],
      "name": "LoanExpired",
      "type": "event"
    },
    {
      "anonymous": false,
      "inputs": [],
      "name": "LoanRepaid",
      "type": "event"
    }
  ],
  "bytecode": "0x606060405234156200001057600080fd5b604051620017763803806200177683398101604052808051906020019091908051906020019091908051906020019091908051906020019091908051820191906020018051820191905050856000806101000a81548173ffffffffffffffffffffffffffffffffffffffff021916908373ffffffffffffffffffffffffffffffffffffffff160217905550670de0b6b3a76400008502600181905550826002819055506201518084024201600381905550620151808302600354016004819055508160059080519060200190620000e99291906200016a565b508060069080519060200190620001029291906200016a565b50600c8054806001018281620001199190620001f1565b91600052602060002090600202016000604080519081016040528060045481526020016001548152509091909150600082015181600001556020820151816001015550505050505050505062000280565b828054600181600116156101000203166002900490600052602060002090601f016020900481019282601f10620001ad57805160ff1916838001178555620001de565b82800160010185558215620001de579182015b82811115620001dd578251825591602001919060010190620001c0565b5b509050620001ed919062000226565b5090565b81548183558181151162000221576002028160020283600052602060002091820191016200022091906200024e565b5b505050565b6200024b91905b80821115620002475760008160009055506001016200022d565b5090565b90565b6200027d91905b80821115620002795760008082016000905560018201600090555060020162000255565b5090565b90565b6114e680620002906000396000f30060606040526004361061013e576000357c0100000000000000000000000000000000000000000000000000000000900463ffffffff16806306fdde03146101435780630c3f6acf146101d157806319cc3aaa14610208578063281380e81461023157806328b4e8561461025a5780632d6963ce1461026f578063402d8883146102d25780634c97d71a146102dc5780635cdb98291461036a5780635edf0c9e1461037f5780635f97a7d8146103a85780636fbfd409146104035780637b3e5e7b146104415780637ba61ea51461046a57806387d81789146104bf5780638e362394146104fd57806395e723141461052657806397dffc61146105735780639d585f7f1461057d578063bb927c46146105a6578063cbc9130e146105cf578063d0bf4de6146105f8578063ee86afd814610625578063f14f6e171461064e575b600080fd5b341561014e57600080fd5b610156610663565b6040518080602001828103825283818151815260200191508051906020019080838360005b8381101561019657808201518184015260208101905061017b565b50505050905090810190601f1680156101c35780820380516001836020036101000a031916815260200191505b509250505060405180910390f35b34156101dc57600080fd5b6101e4610701565b604051808260048111156101f457fe5b60ff16815260200191505060405180910390f35b341561021357600080fd5b61021b610714565b6040518082815260200191505060405180910390f35b341561023c57600080fd5b61024461071a565b6040518082815260200191505060405180910390f35b341561026557600080fd5b61026d610728565b005b341561027a57600080fd5b6102906004808035906020019091905050610795565b604051808273ffffffffffffffffffffffffffffffffffffffff1673ffffffffffffffffffffffffffffffffffffffff16815260200191505060405180910390f35b6102da6107d4565b005b34156102e757600080fd5b6102ef610b22565b6040518080602001828103825283818151815260200191508051906020019080838360005b8381101561032f578082015181840152602081019050610314565b50505050905090810190601f16801561035c5780820380516001836020036101000a031916815260200191505b509250505060405180910390f35b341561037557600080fd5b61037d610bc0565b005b341561038a57600080fd5b610392610d51565b6040518082815260200191505060405180910390f35b34156103b357600080fd5b6103df600480803573ffffffffffffffffffffffffffffffffffffffff16906020019091905050610d5f565b60405180848152602001838152602001828152602001935050505060405180910390f35b341561040e57600080fd5b6104246004808035906020019091905050610d89565b604051808381526020018281526020019250505060405180910390f35b341561044c57600080fd5b610454610dbc565b6040518082815260200191505060405180910390f35b341561047557600080fd5b61047d610dc2565b604051808273ffffffffffffffffffffffffffffffffffffffff1673ffffffffffffffffffffffffffffffffffffffff16815260200191505060405180910390f35b34156104ca57600080fd5b6104e06004808035906020019091905050610de7565b604051808381526020018281526020019250505060405180910390f35b341561050857600080fd5b610510610e1a565b6040518082815260200191505060405180910390f35b341561053157600080fd5b61055d600480803573ffffffffffffffffffffffffffffffffffffffff16906020019091905050610e20565b6040518082815260200191505060405180910390f35b61057b610f1f565b005b341561058857600080fd5b610590611198565b6040518082815260200191505060405180910390f35b34156105b157600080fd5b6105b961119e565b6040518082815260200191505060405180910390f35b34156105da57600080fd5b6105e26111ab565b6040518082815260200191505060405180910390f35b341561060357600080fd5b61060b6111b1565b604051808215151515815260200191505060405180910390f35b341561063057600080fd5b6106386111f0565b6040518082815260200191505060405180910390f35b341561065957600080fd5b6106616111f6565b005b60058054600181600116156101000203166002900480601f0160208091040260200160405190810160405280929190818152602001828054600181600116156101000203166002900480156106f95780601f106106ce576101008083540402835291602001916106f9565b820191906000526020600020905b8154815290600101906020018083116106dc57829003601f168201915b505050505081565b600b60009054906101000a900460ff1681565b60045481565b600060075460015403905090565b600354421015801561073d5750600154600754105b15610793576004600b60006101000a81548160ff0219169083600481111561076157fe5b02179055507f5dc919cafc7dd3f912b1ba505941b4eb1c8f4fd4bea581b22982d7d0feef549c60405160405180910390a15b565b6009818154811015156107a457fe5b90600052602060002090016000915054906101000a900473ffffffffffffffffffffffffffffffffffffffff1681565b60008060008060008060009054906101000a900473ffffffffffffffffffffffffffffffffffffffff1673ffffffffffffffffffffffffffffffffffffffff163373ffffffffffffffffffffffffffffffffffffffff1614151561083757600080fd5b6002600481111561084457fe5b600b60009054906101000a900460ff16600481111561085f57fe5b14151561086b57600080fd5b610873610d51565b341115151561088157600080fd5b346008600082825401925050819055507f9540628bcc956d1875c390fc9c9937464c5d6a3bcef396c4c48c262c25f89e796000809054906101000a900473ffffffffffffffffffffffffffffffffffffffff1634604051808373ffffffffffffffffffffffffffffffffffffffff1673ffffffffffffffffffffffffffffffffffffffff1681526020018281526020019250505060405180910390a1600d80548060010182816109319190611408565b916000526020600020906002020160006040805190810160405280428152602001348152509091909150600082015181600001556020820151816001015550505034945060009350600092505b600980549050831015610b135760098381548110151561099a57fe5b906000526020600020900160009054906101000a900473ffffffffffffffffffffffffffffffffffffffff169150610a3a85600a60008573ffffffffffffffffffffffffffffffffffffffff1673ffffffffffffffffffffffffffffffffffffffff16815260200190815260200160002060606040519081016040529081600082015481526020016001820154815260200160028201548152505061130b565b90506000811115610b06577f5f1d3e8a00979c6a9305039148c35f8fa408d3292c93f865cad76e32ae6ce0bb8282604051808373ffffffffffffffffffffffffffffffffffffffff1673ffffffffffffffffffffffffffffffffffffffff1681526020018281526020019250505060405180910390a180600a60008473ffffffffffffffffffffffffffffffffffffffff1673ffffffffffffffffffffffffffffffffffffffff1681526020019081526020016000206001016000828254019250508190555080840193505b828060010193505061097e565b610b1b611349565b5050505050565b60068054600181600116156101000203166002900480601f016020809104026020016040519081016040528092919081815260200182805460018160011615610100020316600290048015610bb85780601f10610b8d57610100808354040283529160200191610bb8565b820191906000526020600020905b815481529060010190602001808311610b9b57829003601f168201915b505050505081565b6000809054906101000a900473ffffffffffffffffffffffffffffffffffffffff1673ffffffffffffffffffffffffffffffffffffffff163373ffffffffffffffffffffffffffffffffffffffff16141515610c1b57600080fd5b60016004811115610c2857fe5b600b60009054906101000a900460ff166004811115610c4357fe5b141515610c4f57600080fd5b60006007541115610d4f576002600b60006101000a81548160ff02191690836004811115610c7957fe5b02179055503373ffffffffffffffffffffffffffffffffffffffff166108fc6007549081150290604051600060405180830381858888f193505050501515610cc057600080fd5b7f578e21d0b157d96ca63ed68a4b14ae51e6eee5a6fc77905ede446749fa5a1ab56000809054906101000a900473ffffffffffffffffffffffffffffffffffffffff16600754604051808373ffffffffffffffffffffffffffffffffffffffff1673ffffffffffffffffffffffffffffffffffffffff1681526020018281526020019250505060405180910390a15b565b600060085460015403905090565b600a6020528060005260406000206000915090508060000154908060010154908060020154905083565b600c81815481101515610d9857fe5b90600052602060002090600202016000915090508060000154908060010154905082565b60075481565b6000809054906101000a900473ffffffffffffffffffffffffffffffffffffffff1681565b600d81815481101515610df657fe5b90600052602060002090600202016000915090508060000154908060010154905082565b60025481565b6000806000809150600a60008573ffffffffffffffffffffffffffffffffffffffff1673ffffffffffffffffffffffffffffffffffffffff1681526020019081526020016000209050600480811115610e7557fe5b600b60009054906101000a900460ff166004811115610e9057fe5b1415610ea85780600201548160000154039150610f15565b60026004811115610eb557fe5b600b60009054906101000a900460ff166004811115610ed057fe5b1480610f01575060036004811115610ee457fe5b600b60009054906101000a900460ff166004811115610eff57fe5b145b15610f1457806002015481600101540391505b5b8192505050919050565b6000809054906101000a900473ffffffffffffffffffffffffffffffffffffffff1673ffffffffffffffffffffffffffffffffffffffff163373ffffffffffffffffffffffffffffffffffffffff1614151515610f7b57600080fd5b610f8361071a565b3411151515610f9157600080fd5b6000600a60003373ffffffffffffffffffffffffffffffffffffffff1673ffffffffffffffffffffffffffffffffffffffff1681526020019081526020016000206000015414156110c25760098054806001018281610ff0919061143a565b9160005260206000209001600033909190916101000a81548173ffffffffffffffffffffffffffffffffffffffff021916908373ffffffffffffffffffffffffffffffffffffffff16021790555050606060405190810160405280348152602001600081526020016000815250600a60003373ffffffffffffffffffffffffffffffffffffffff1673ffffffffffffffffffffffffffffffffffffffff168152602001908152602001600020600082015181600001556020820151816001015560408201518160020155905050611113565b34600a60003373ffffffffffffffffffffffffffffffffffffffff1673ffffffffffffffffffffffffffffffffffffffff168152602001908152602001600020600001600082825401925050819055505b346007600082825401925050819055507f47047d86227821f4ba4162b47a4e21f3751a6898df27767881baae61a5df54b93334604051808373ffffffffffffffffffffffffffffffffffffffff1673ffffffffffffffffffffffffffffffffffffffff1681526020018281526020019250505060405180910390a16111966113a8565b565b60015481565b6000600980549050905090565b60035481565b600060045442101580156111eb5750600360048111156111cd57fe5b600b60009054906101000a900460ff1660048111156111e857fe5b14155b905090565b60085481565b600061120133610e20565b905060008111156113085780600a60003373ffffffffffffffffffffffffffffffffffffffff1673ffffffffffffffffffffffffffffffffffffffff168152602001908152602001600020600201600082825401925050819055503373ffffffffffffffffffffffffffffffffffffffff166108fc829081150290604051600060405180830381858888f19350505050151561129c57600080fd5b7f5eb46cc574ef1abdbd52310ce761acbb5cbd48af34b53e4f32083f205c8a977e3382604051808373ffffffffffffffffffffffffffffffffffffffff1673ffffffffffffffffffffffffffffffffffffffff1681526020018281526020019250505060405180910390a15b50565b6000600154600854141515611335576001548260000151840281151561132d57fe5b049050611343565b816020015182600001510390505b92915050565b60015460085414156113a6576003600b60006101000a81548160ff0219169083600481111561137457fe5b02179055507f1062e18f9d21decf38f145fc9b437cd2c70e09252a729f9830b75ffdaaf3789460405160405180910390a15b565b600154600754101515611406576001600b60006101000a81548160ff021916908360048111156113d457fe5b02179055507f3351ae6756a83898700959ab1a672004e55a70dd6e74a45a80835316af9c76a460405160405180910390a15b565b815481835581811511611435576002028160020283600052602060002091820191016114349190611466565b5b505050565b815481835581811511611461578183600052602060002091820191016114609190611495565b5b505050565b61149291905b8082111561148e5760008082016000905560018201600090555060020161146c565b5090565b90565b6114b791905b808211156114b357600081600090555060010161149b565b5090565b905600a165627a7a7230582050dd2c8af2fd968e86ac93ddd745c85ebde3789d75900b041da51405192706230029",
  "source": "pragma solidity ^0.4.15;\n/*\n    A simple loan contract which allows lenders to lend and borrowers to repay\n*/\ncontract LoanContract {\n    //Constructor vars\n    address public borrowerAddress;\n    uint public loanAmount;\n    uint public repaymentDuration;\n    uint public fundRaisingDeadline;\n    uint public repaymentDeadline;\n    string public name;\n    string public use;\n    \n    //Useful vars\n    uint public amountRaised;\n    uint public amountRepaid;\n    /* Since solidity doesn't allow iterating over mapping, we need 2 data structures to represent lender accounts */\n    address[] public lenderAddresses;\n    mapping(address => LenderAccount) public lenderAccounts;\n    enum State {raising, funded, repaying, repaid, expired}\n    State public currentState;\n    struct LenderAccount {\n        uint amountLent;\n        uint amountRepaid;\n        uint amountWithdrawn;\n    }\n    PaymentEntry[] public schedule;\n    PaymentEntry[] public payments;\n    struct PaymentEntry {\n        uint date;\n        uint amount;\n    }\n    \n    //Events\n    event LentToLoan(address addr, uint amount);\n    event DisbursedToBorrower(address addr, uint amount);\n    event RepaidByBorrower(address addr, uint amount);\n    event RepaidToLender(address addr, uint amount);\n    event SentBack(address addr, uint amount);\n    event LenderWithdrew(address addr, uint amount);\n    event LoanFunded();\n    event LoanExpired();\n    event LoanRepaid();\n    \n    // Constructor\n    function LoanContract(\n        address _borrowerAddress, \n        uint _loanAmountInEthers,\n        uint _fundRaisingDurationInDays,\n        uint _repaymentDurationInDays,\n        string _name,\n        string _use\n    ) public {\n        borrowerAddress = _borrowerAddress;\n        loanAmount = _loanAmountInEthers * 1 ether;\n        repaymentDuration = _repaymentDurationInDays;\n        fundRaisingDeadline = now + _fundRaisingDurationInDays * 1 days;\n        repaymentDeadline = fundRaisingDeadline + _repaymentDurationInDays * 1 days;\n        name = _name;\n        use = _use;\n        // For now just do a single scheduled payment at the end\n        schedule.push(PaymentEntry(repaymentDeadline, loanAmount));\n    }\n    \n    // Lender sends wei to the contract, we store how much they lent\n    function lend() payable public {\n        // Don't allow borrowers to lend, or allow overfunding\n        require(msg.sender != borrowerAddress);\n        require(msg.value <= amountLeftToFund());\n        \n        // Handle lender lending twice\n        if (lenderAccounts[msg.sender].amountLent == 0) {\n            lenderAddresses.push(msg.sender);\n            lenderAccounts[msg.sender] = LenderAccount(msg.value, 0, 0);\n        } else {\n            lenderAccounts[msg.sender].amountLent += msg.value;\n        }\n        \n        amountRaised += msg.value;\n        LentToLoan(msg.sender, msg.value);\n        \n        checkLoanFunded();\n    }\n    \n    // If we have raised the full loan amount, then transition to funded\n    function checkLoanFunded() private {\n        if (amountRaised >= loanAmount) {\n            currentState = State.funded;\n            LoanFunded();\n        }\n    }\n    \n    // The recommended pattern for disbursals is to have the borrower withdraw\n    function borrowerWithdraw() public {\n         // Only borrowers can withdraw, and only in the funded state\n        require(msg.sender == borrowerAddress);\n        require(currentState == State.funded);\n        \n        if (amountRaised > 0) {\n            currentState = State.repaying;\n            msg.sender.transfer(amountRaised);\n            DisbursedToBorrower(borrowerAddress, amountRaised);\n        }\n    }\n    \n    // Borrower sends wei to the contract, we record the amount repaid\n    function repay() payable public {\n        // Only borrowers can repay, and can't repay more than the amount left\n        require(msg.sender == borrowerAddress);\n        require(currentState == State.repaying);\n        require(msg.value <= amountLeftToRepay());\n        \n        amountRepaid += msg.value;\n        RepaidByBorrower(borrowerAddress, msg.value);\n        payments.push(PaymentEntry(now, msg.value));\n        \n        // Distribute wei evenly to lenders, if there's a remainder we'll distribute at the end\n        uint amountToDistribute = msg.value;\n        uint amountDistributed = 0;\n        for (uint i = 0; i < lenderAddresses.length; i++) {\n            address currentLender = lenderAddresses[i];\n            uint amountForLender = getAmountForLender(amountToDistribute, lenderAccounts[currentLender]);\n            if (amountForLender > 0) {\n                RepaidToLender(currentLender, amountForLender);\n                lenderAccounts[currentLender].amountRepaid += amountForLender;\n                amountDistributed += amountForLender;\n            }\n        }\n        \n        checkLoanRepaid();\n    }\n    \n    function getAmountForLender(uint amountToDistribute, LenderAccount account) private view returns (uint) {\n        if (amountRepaid != loanAmount) {\n            // Regular case, division in solidity throws away the remainder\n            return (amountToDistribute * account.amountLent) / loanAmount;\n        } else {\n            // Last repayment case, make sure everyone is topped up\n            return account.amountLent - account.amountRepaid;\n        }\n    }\n    \n    function checkLoanRepaid() private {\n        if (amountRepaid == loanAmount) {\n            currentState = State.repaid;\n            LoanRepaid();\n        }\n    }\n    \n    // The recommended pattern for lender's to recieve repayments is to have them withdraw\n    function lenderWithdraw() public {\n        uint amountToWithdraw = amountLenderCanWithdraw(msg.sender);\n        if (amountToWithdraw > 0) {\n            lenderAccounts[msg.sender].amountWithdrawn += amountToWithdraw;\n            msg.sender.transfer(amountToWithdraw);\n            LenderWithdrew(msg.sender, amountToWithdraw);\n        }\n    }\n    \n    // Calculates how much the lender can withdraw based on loan state\n    function amountLenderCanWithdraw(address lenderAddr) public view returns (uint) {\n        uint amountCanWithdraw = 0;\n        LenderAccount storage lenderAccount = lenderAccounts[lenderAddr];\n        if (currentState == State.expired) {\n            /* If the loan expired, lenders can withdraw their contributed amount*/\n            amountCanWithdraw = lenderAccount.amountLent - lenderAccount.amountWithdrawn;\n        } else if (currentState == State.repaying || currentState == State.repaid) {\n            /* If the loan is repaying or fully repaid the lenders can withdraw however much has been repaid to them */\n            amountCanWithdraw = lenderAccount.amountRepaid - lenderAccount.amountWithdrawn;\n        }\n        return amountCanWithdraw;\n    }\n\n    // Solidity doesn't support timer calls, so an admin will have to call this\n    function makeExpired() public {\n         if (now >= fundRaisingDeadline && amountRaised < loanAmount) {\n            currentState = State.expired;\n            LoanExpired();\n        }\n    }\n    \n    /* Useful constant functions */\n    \n    function numLenders() public view returns (uint) {\n        return lenderAddresses.length;\n    }\n    \n    function amountLeftToFund() public view returns (uint) {\n        return loanAmount - amountRaised;\n    }\n    \n    function amountLeftToRepay() public view returns (uint) {\n        return loanAmount - amountRepaid;\n    }\n    \n    function isDelinquent() public view returns (bool) {\n        return (now >= repaymentDeadline && currentState != State.repaid);\n    }\n}",
  "sourcePath": "/Users/jsaur/VMs/projects/truffle/lending-dapp/contracts/LoanContract.sol",
  "compiler": {
    "name": "solc",
    "version": "0.4.18+commit.9cf6e910.Emscripten.clang"
  },
  "schemaVersion": "1.0.1",
  "updatedAt": "2017-11-09T04:46:01.182Z"
}