{
  "contractName": "LoanFactory",
  "abi": [
    {
      "constant": false,
      "inputs": [
        {
          "name": "_name",
          "type": "bytes32"
        }
      ],
      "name": "create",
      "outputs": [],
      "payable": false,
      "type": "function",
      "stateMutability": "nonpayable"
    },
    {
      "constant": true,
      "inputs": [
        {
          "name": "",
          "type": "address"
        }
      ],
      "name": "loans",
      "outputs": [
        {
          "name": "",
          "type": "bytes32"
        }
      ],
      "payable": false,
      "type": "function",
      "stateMutability": "view"
    },
    {
      "constant": true,
      "inputs": [
        {
          "name": "_address",
          "type": "address"
        }
      ],
      "name": "get",
      "outputs": [
        {
          "name": "_name",
          "type": "bytes32"
        }
      ],
      "payable": false,
      "type": "function",
      "stateMutability": "view"
    },
    {
      "constant": true,
      "inputs": [
        {
          "name": "_address",
          "type": "address"
        }
      ],
      "name": "exists",
      "outputs": [
        {
          "name": "_exists",
          "type": "bool"
        }
      ],
      "payable": false,
      "type": "function",
      "stateMutability": "view"
    },
    {
      "anonymous": false,
      "inputs": [
        {
          "indexed": true,
          "name": "_address",
          "type": "address"
        },
        {
          "indexed": false,
          "name": "_name",
          "type": "bytes32"
        }
      ],
      "name": "LoanCreated",
      "type": "event"
    }
  ],
  "bytecode": "0x6060604052341561000f57600080fd5b61031f8061001e6000396000f300606060405260043610610062576000357c0100000000000000000000000000000000000000000000000000000000900463ffffffff1680637368a8ce1461006757806373b4086b1461008e578063c2bc2efc146100e3578063f6a3d24e14610138575b600080fd5b341561007257600080fd5b61008c600480803560001916906020019091905050610189565b005b341561009957600080fd5b6100c5600480803573ffffffffffffffffffffffffffffffffffffffff16906020019091905050610229565b60405180826000191660001916815260200191505060405180910390f35b34156100ee57600080fd5b61011a600480803573ffffffffffffffffffffffffffffffffffffffff16906020019091905050610241565b60405180826000191660001916815260200191505060405180910390f35b341561014357600080fd5b61016f600480803573ffffffffffffffffffffffffffffffffffffffff1690602001909190505061029d565b604051808215151515815260200191505060405180910390f35b806000803373ffffffffffffffffffffffffffffffffffffffff1673ffffffffffffffffffffffffffffffffffffffff16815260200190815260200160002081600019169055503373ffffffffffffffffffffffffffffffffffffffff167fbf56a8f9f77bc28fd3bc4cb935a6b29c08847b9320743e6b23a37898f9eef8f38260405180826000191660001916815260200191505060405180910390a250565b60006020528060005260406000206000915090505481565b600061024c8261029d565b151561025757600080fd5b6000808373ffffffffffffffffffffffffffffffffffffffff1673ffffffffffffffffffffffffffffffffffffffff168152602001908152602001600020549050919050565b600080600102600019166000808473ffffffffffffffffffffffffffffffffffffffff1673ffffffffffffffffffffffffffffffffffffffff1681526020019081526020016000205460001916141590509190505600a165627a7a72305820dc6cafa51d4f7b6fe670b6bac750178c7b429c33bedecaa8d0b9a83e57e7696a0029",
  "source": "pragma solidity ^0.4.15;\n\ncontract LoanFactory {\n\n  mapping(address => bytes32) public loans;\n\n  event LoanCreated(address indexed _address, bytes32 _name);\n\n  function exists (address _address) public constant returns (bool _exists) {\n    return (loans[_address] != bytes32(0));\n  }\n\n  function create (bytes32 _name) public {\n    loans[msg.sender] = _name ;\n    LoanCreated(msg.sender, _name);\n  }\n\n  function get (address _address) public constant returns(bytes32 _name) {\n    require(exists(_address));\n    return (loans[_address]);\n  }\n\n}\n",
  "sourcePath": "/Users/jsaur/VMs/projects/truffle/lending-dapp/contracts/LoanFactory.sol",
  "compiler": {
    "name": "solc",
    "version": "0.4.18+commit.9cf6e910.Emscripten.clang"
  },
  "schemaVersion": "1.0.1",
  "updatedAt": "2017-11-01T11:33:55.391Z"
}