{
  "contractName": "LoanContract",
  "abi": [
    {
      "constant": true,
      "inputs": [],
      "name": "currentState",
      "outputs": [
        {
          "name": "",
          "type": "uint8"
        }
      ],
      "payable": false,
      "stateMutability": "view",
      "type": "function"
    },
    {
      "constant": true,
      "inputs": [],
      "name": "repaymentDeadline",
      "outputs": [
        {
          "name": "",
          "type": "uint256"
        }
      ],
      "payable": false,
      "stateMutability": "view",
      "type": "function"
    },
    {
      "constant": true,
      "inputs": [],
      "name": "amountLeftToFund",
      "outputs": [
        {
          "name": "",
          "type": "uint256"
        }
      ],
      "payable": false,
      "stateMutability": "view",
      "type": "function"
    },
    {
      "constant": false,
      "inputs": [],
      "name": "makeExpired",
      "outputs": [],
      "payable": false,
      "stateMutability": "nonpayable",
      "type": "function"
    },
    {
      "constant": true,
      "inputs": [
        {
          "name": "",
          "type": "uint256"
        }
      ],
      "name": "lenderAddresses",
      "outputs": [
        {
          "name": "",
          "type": "address"
        }
      ],
      "payable": false,
      "stateMutability": "view",
      "type": "function"
    },
    {
      "constant": false,
      "inputs": [],
      "name": "repay",
      "outputs": [
        {
          "name": "",
          "type": "uint256"
        }
      ],
      "payable": true,
      "stateMutability": "payable",
      "type": "function"
    },
    {
      "constant": true,
      "inputs": [
        {
          "name": "",
          "type": "address"
        }
      ],
      "name": "amountLeftToRepay",
      "outputs": [
        {
          "name": "",
          "type": "uint256"
        },
        {
          "name": "amountRepaid",
          "type": "uint256"
        }
      ],
      "payable": false,
      "stateMutability": "view",
      "type": "function"
    },
    {
      "constant": true,
      "inputs": [
        {
          "name": "",
          "type": "address"
        }
      ],
      "name": "lenderAccounts",
      "outputs": [
        {
          "name": "amountLent",
          "type": "uint256"
        },
        {
          "name": "amountRepaid",
          "type": "uint256"
        }
      ],
      "payable": false,
      "stateMutability": "view",
      "type": "function"
    },
    {
      "constant": true,
      "inputs": [],
      "name": "amountRaised",
      "outputs": [
        {
          "name": "",
          "type": "uint256"
        }
      ],
      "payable": false,
      "stateMutability": "view",
      "type": "function"
    },
    {
      "constant": false,
      "inputs": [],
      "name": "lend",
      "outputs": [
        {
          "name": "",
          "type": "uint256"
        }
      ],
      "payable": true,
      "stateMutability": "payable",
      "type": "function"
    },
    {
      "constant": true,
      "inputs": [],
      "name": "loanAmount",
      "outputs": [
        {
          "name": "",
          "type": "uint256"
        }
      ],
      "payable": false,
      "stateMutability": "view",
      "type": "function"
    },
    {
      "constant": true,
      "inputs": [],
      "name": "numLenders",
      "outputs": [
        {
          "name": "",
          "type": "uint256"
        }
      ],
      "payable": false,
      "stateMutability": "view",
      "type": "function"
    },
    {
      "constant": true,
      "inputs": [],
      "name": "fundRaisingDeadline",
      "outputs": [
        {
          "name": "",
          "type": "uint256"
        }
      ],
      "payable": false,
      "stateMutability": "view",
      "type": "function"
    },
    {
      "constant": true,
      "inputs": [],
      "name": "minimumLendAmount",
      "outputs": [
        {
          "name": "",
          "type": "uint256"
        }
      ],
      "payable": false,
      "stateMutability": "view",
      "type": "function"
    },
    {
      "inputs": [
        {
          "name": "_borrowerAddress",
          "type": "address"
        },
        {
          "name": "loanAmountInEthers",
          "type": "uint256"
        },
        {
          "name": "fundRaisingDurationInDays",
          "type": "uint256"
        },
        {
          "name": "repaymentDurationInDays",
          "type": "uint256"
        }
      ],
      "payable": false,
      "stateMutability": "view",
      "type": "function",
      "constant": true,
      "name": "isDelinquent",
      "outputs": [
        {
          "name": "",
          "type": "bool"
        }
      ]
    },
    {
      "payable": false,
      "stateMutability": "view",
      "type": "function",
      "constant": true,
      "inputs": [],
      "name": "amountRepaid",
      "outputs": [
        {
          "name": "",
          "type": "uint256"
        }
      ]
    },
    {
      "anonymous": false,
      "inputs": [
        {
          "indexed": false,
          "name": "_borrowerAddress",
          "type": "address"
        },
        {
          "indexed": false,
          "name": "loanAmountInEthers",
          "type": "uint256"
        },
        {
          "name": "fundRaisingDurationInDays",
          "type": "uint256"
        },
        {
          "name": "repaymentDurationInDays",
          "type": "uint256"
        }
      ],
      "name": "LentToLoan",
      "type": "constructor",
      "payable": false,
      "stateMutability": "nonpayable"
    },
    {
      "anonymous": false,
      "inputs": [
        {
          "indexed": false,
          "name": "addr",
          "type": "address"
        },
        {
          "indexed": false,
          "name": "amount",
          "type": "uint256"
        }
      ],
      "name": "DisbursedToBorrower",
      "type": "fallback",
      "payable": true,
      "stateMutability": "payable"
    },
    {
      "anonymous": false,
      "inputs": [
        {
          "indexed": false,
          "name": "addr",
          "type": "address"
        },
        {
          "indexed": false,
          "name": "amount",
          "type": "uint256"
        }
      ],
      "name": "LentToLoan",
      "type": "event"
    },
    {
      "anonymous": false,
      "inputs": [
        {
          "indexed": false,
          "name": "addr",
          "type": "address"
        },
        {
          "indexed": false,
          "name": "amount",
          "type": "uint256"
        }
      ],
      "name": "DisbursedToBorrower",
      "type": "event"
    },
    {
      "anonymous": false,
      "inputs": [
        {
          "indexed": false,
          "name": "addr",
          "type": "address"
        },
        {
          "indexed": false,
          "name": "amount",
          "type": "uint256"
        }
      ],
      "name": "RepaidByBorrower",
      "type": "event"
    },
    {
      "anonymous": false,
      "inputs": [
        {
          "indexed": false,
          "name": "addr",
          "type": "address"
        },
        {
          "indexed": false,
          "name": "amount",
          "type": "uint256"
        }
      ],
      "name": "RepaidToLender",
      "type": "event"
    },
    {
      "anonymous": false,
      "inputs": [
        {
          "indexed": false,
          "name": "addr",
          "type": "address"
        },
        {
          "indexed": false,
          "name": "amount",
          "type": "uint256"
        }
      ],
      "name": "SentBack",
      "type": "event"
    },
    {
      "anonymous": false,
      "inputs": [],
      "name": "LoanFunded",
      "type": "event"
    },
    {
      "anonymous": false,
      "inputs": [],
      "name": "LoanExpired",
      "type": "event"
    },
    {
      "anonymous": false,
      "inputs": [],
      "name": "LoanRepaid",
      "type": "event"
    }
  ],
  "bytecode": "0x60606040526706f05b59d3b20000600755341561001b57600080fd5b604051608080610ff883398101604052808051906020019091908051906020019091908051906020019091908051906020019091905050836000806101000a81548173ffffffffffffffffffffffffffffffffffffffff021916908373ffffffffffffffffffffffffffffffffffffffff160217905550670de0b6b3a7640000830260018190555062015180820242016002819055506201518081026002540160038190555050505050610f24806100d46000396000f3006060604052600436106100e6576000357c0100000000000000000000000000000000000000000000000000000000900463ffffffff1680630c3f6acf1461016457806319cc3aaa1461019b578063281380e8146101c457806328b4e856146101ed5780632d6963ce14610202578063402d8883146102655780635edf0c9e1461026f5780635f97a7d8146102985780637b3e5e7b146102ec57806397dffc61146103155780639d585f7f1461031f578063bb927c4614610348578063cbc9130e14610371578063d0087c681461039a578063d0bf4de6146103c3578063ee86afd8146103f0575b600060048111156100f357fe5b600a60009054906101000a900460ff16600481111561010e57fe5b14156101215761011c610419565b610162565b6002600481111561012e57fe5b600a60009054906101000a900460ff16600481111561014957fe5b141561015c576101576106b4565b610161565b600080fd5b5b005b341561016f57600080fd5b6101776109a9565b6040518082600481111561018757fe5b60ff16815260200191505060405180910390f35b34156101a657600080fd5b6101ae6109bc565b6040518082815260200191505060405180910390f35b34156101cf57600080fd5b6101d76109c2565b6040518082815260200191505060405180910390f35b34156101f857600080fd5b6102006109d0565b005b341561020d57600080fd5b6102236004808035906020019091905050610bea565b604051808273ffffffffffffffffffffffffffffffffffffffff1673ffffffffffffffffffffffffffffffffffffffff16815260200191505060405180910390f35b61026d6106b4565b005b341561027a57600080fd5b610282610c29565b6040518082815260200191505060405180910390f35b34156102a357600080fd5b6102cf600480803573ffffffffffffffffffffffffffffffffffffffff16906020019091905050610c37565b604051808381526020018281526020019250505060405180910390f35b34156102f757600080fd5b6102ff610c5b565b6040518082815260200191505060405180910390f35b61031d610419565b005b341561032a57600080fd5b610332610c61565b6040518082815260200191505060405180910390f35b341561035357600080fd5b61035b610c67565b6040518082815260200191505060405180910390f35b341561037c57600080fd5b610384610c6d565b6040518082815260200191505060405180910390f35b34156103a557600080fd5b6103ad610c73565b6040518082815260200191505060405180910390f35b34156103ce57600080fd5b6103d6610c79565b604051808215151515815260200191505060405180910390f35b34156103fb57600080fd5b610403610cb8565b6040518082815260200191505060405180910390f35b6000809054906101000a900473ffffffffffffffffffffffffffffffffffffffff1673ffffffffffffffffffffffffffffffffffffffff163373ffffffffffffffffffffffffffffffffffffffff161415151561047557600080fd5b61047d6109c2565b341115151561048b57600080fd5b600754341015806104a2575061049f6109c2565b34145b15156104ad57600080fd5b6000600960003373ffffffffffffffffffffffffffffffffffffffff1673ffffffffffffffffffffffffffffffffffffffff1681526020019081526020016000206000015414156105de576004600081548092919060010191905055506008805480600101828161051e9190610ea7565b9160005260206000209001600033909190916101000a81548173ffffffffffffffffffffffffffffffffffffffff021916908373ffffffffffffffffffffffffffffffffffffffff1602179055505060408051908101604052803481526020016000815250600960003373ffffffffffffffffffffffffffffffffffffffff1673ffffffffffffffffffffffffffffffffffffffff168152602001908152602001600020600082015181600001556020820151816001015590505061062f565b34600960003373ffffffffffffffffffffffffffffffffffffffff1673ffffffffffffffffffffffffffffffffffffffff168152602001908152602001600020600001600082825401925050819055505b346005600082825401925050819055507f47047d86227821f4ba4162b47a4e21f3751a6898df27767881baae61a5df54b93334604051808373ffffffffffffffffffffffffffffffffffffffff1673ffffffffffffffffffffffffffffffffffffffff1681526020018281526020019250505060405180910390a16106b2610cbe565b565b60008060008060008060009054906101000a900473ffffffffffffffffffffffffffffffffffffffff1673ffffffffffffffffffffffffffffffffffffffff163373ffffffffffffffffffffffffffffffffffffffff1614151561071757600080fd5b61071f610c29565b341115151561072d57600080fd5b346006600082825401925050819055507f9540628bcc956d1875c390fc9c9937464c5d6a3bcef396c4c48c262c25f89e796000809054906101000a900473ffffffffffffffffffffffffffffffffffffffff1634604051808373ffffffffffffffffffffffffffffffffffffffff1673ffffffffffffffffffffffffffffffffffffffff1681526020018281526020019250505060405180910390a134945060009350600092505b60088054905083101561099a576008838154811015156107f157fe5b906000526020600020900160009054906101000a900473ffffffffffffffffffffffffffffffffffffffff16915061088685600960008573ffffffffffffffffffffffffffffffffffffffff1673ffffffffffffffffffffffffffffffffffffffff16815260200190815260200160002060408051908101604052908160008201548152602001600182015481525050610e0a565b9050600081111561098d578173ffffffffffffffffffffffffffffffffffffffff166108fc829081150290604051600060405180830381858888f193505050501561098c577f5f1d3e8a00979c6a9305039148c35f8fa408d3292c93f865cad76e32ae6ce0bb8282604051808373ffffffffffffffffffffffffffffffffffffffff1673ffffffffffffffffffffffffffffffffffffffff1681526020018281526020019250505060405180910390a180600960008473ffffffffffffffffffffffffffffffffffffffff1673ffffffffffffffffffffffffffffffffffffffff1681526020019081526020016000206001016000828254019250508190555080840193505b5b82806001019350506107d5565b6109a2610e48565b5050505050565b600a60009054906101000a900460ff1681565b60035481565b600060055460015403905090565b6000806002544210158015610a0a57506004808111156109ec57fe5b600a60009054906101000a900460ff166004811115610a0757fe5b14155b15610be6576004600a60006101000a81548160ff02191690836004811115610a2e57fe5b02179055507f5dc919cafc7dd3f912b1ba505941b4eb1c8f4fd4bea581b22982d7d0feef549c60405160405180910390a1600091505b600880549050821015610be557600882815481101515610a8057fe5b906000526020600020900160009054906101000a900473ffffffffffffffffffffffffffffffffffffffff1690508073ffffffffffffffffffffffffffffffffffffffff166108fc600960008473ffffffffffffffffffffffffffffffffffffffff1673ffffffffffffffffffffffffffffffffffffffff168152602001908152602001600020600001549081150290604051600060405180830381858888f1935050505015610bd8577f5f1d3e8a00979c6a9305039148c35f8fa408d3292c93f865cad76e32ae6ce0bb81600960008473ffffffffffffffffffffffffffffffffffffffff1673ffffffffffffffffffffffffffffffffffffffff16815260200190815260200160002060000154604051808373ffffffffffffffffffffffffffffffffffffffff1673ffffffffffffffffffffffffffffffffffffffff1681526020018281526020019250505060405180910390a15b8180600101925050610a64565b5b5050565b600881815481101515610bf957fe5b90600052602060002090016000915054906101000a900473ffffffffffffffffffffffffffffffffffffffff1681565b600060065460015403905090565b60096020528060005260406000206000915090508060000154908060010154905082565b60055481565b60015481565b60045481565b60025481565b60075481565b60006003544210158015610cb3575060036004811115610c9557fe5b600a60009054906101000a900460ff166004811115610cb057fe5b14155b905090565b60065481565b600154600554101515610e08577f3351ae6756a83898700959ab1a672004e55a70dd6e74a45a80835316af9c76a460405160405180910390a16000809054906101000a900473ffffffffffffffffffffffffffffffffffffffff1673ffffffffffffffffffffffffffffffffffffffff166108fc6005549081150290604051600060405180830381858888f1935050505015610e07576002600a60006101000a81548160ff02191690836004811115610d7357fe5b02179055507f578e21d0b157d96ca63ed68a4b14ae51e6eee5a6fc77905ede446749fa5a1ab56000809054906101000a900473ffffffffffffffffffffffffffffffffffffffff16600554604051808373ffffffffffffffffffffffffffffffffffffffff1673ffffffffffffffffffffffffffffffffffffffff1681526020018281526020019250505060405180910390a15b5b565b6000600154600654141515610e345760015482600001518402811515610e2c57fe5b049050610e42565b816020015182600001510390505b92915050565b6001546006541415610ea5576003600a60006101000a81548160ff02191690836004811115610e7357fe5b02179055507f1062e18f9d21decf38f145fc9b437cd2c70e09252a729f9830b75ffdaaf3789460405160405180910390a15b565b815481835581811511610ece57818360005260206000209182019101610ecd9190610ed3565b5b505050565b610ef591905b80821115610ef1576000816000905550600101610ed9565b5090565b905600a165627a7a723058206c0af258bfd08b224020ef5639e3be63c7ccc4d664b7f7043ca12d26fcc1a6d80029",
  "source": "pragma solidity ^0.4.15;\n/* \n    This contract has a minimum lending amount of 0.5 ether. The lent amount can be anything over that.\n    A lender can lend less, if it's all that's required to fully fund a loan. The borrower can repay\n    any amount. There is some extra logic on the last repayment to make sure that everyone gets \n    fully repaid.\n*/\ncontract LoanContract {\n    //Constructor vars\n    address borrowerAddress;\n    uint public loanAmount;\n    uint public fundRaisingDeadline;\n    uint public repaymentDeadline;\n    \n    //Useful vars\n    uint public numLenders;\n    uint public amountRaised;\n    uint public amountRepaid;\n    uint public minimumLendAmount = 500000000000000000;\n    /* Since solidity doesn't allow iterating over mapping, we need 2 data structures to represent lender accounts */\n    address[] public lenderAddresses;\n    mapping(address => LenderAccount) public lenderAccounts;\n    enum State {raising, funded, repaying, repaid, expired} //default?\n    State public currentState;\n    struct LenderAccount {\n        uint amountLent;\n        uint amountRepaid;\n    }\n    \n    //Events\n    event LentToLoan(address addr, uint amount);\n    event DisbursedToBorrower(address addr, uint amount);\n    event RepaidByBorrower(address addr, uint amount);\n    event RepaidToLender(address addr, uint amount);\n    event SentBack(address addr, uint amount);\n    event LoanFunded();\n    event LoanExpired();\n    event LoanRepaid();\n    \n    // Constructor\n    function LoanContract(\n        address _borrowerAddress, \n        uint loanAmountInEthers,\n        uint fundRaisingDurationInDays,\n        uint repaymentDurationInDays \n    ) public {\n        borrowerAddress = _borrowerAddress;\n        loanAmount = loanAmountInEthers * 1 ether;\n        fundRaisingDeadline = now + fundRaisingDurationInDays * 1 days;\n        repaymentDeadline = fundRaisingDeadline + repaymentDurationInDays * 1 days;\n    }\n\n    // To keep things simple, the default function handles all logic for both lenders and borrowers\n    function() payable public {\n        if (currentState == State.raising) {\n            lend();\n        } else if (currentState == State.repaying) {\n            repay();\n        } else {\n            revert();\n        }\n    }\n    \n    // Lender sends wei to the contract, we store how much they lent\n    // This is a public function that can be accessed by a \n    function lend() payable public {\n        // Don't allow borrowers to lend\n        require(msg.sender != borrowerAddress);\n       \n        // Don't allow overfunding\n        require(msg.value <= amountLeftToFund());\n        \n        // Don't allow lending less than the minimum, unless it's exactly what's needed to fund the loan\n        require(msg.value >= minimumLendAmount || msg.value == amountLeftToFund());\n        \n        // Handle lender lending twice\n        if (lenderAccounts[msg.sender].amountLent == 0) {\n            numLenders++;\n            lenderAddresses.push(msg.sender);\n            lenderAccounts[msg.sender] = LenderAccount(msg.value, 0);\n        } else {\n            lenderAccounts[msg.sender].amountLent += msg.value;\n        }\n        \n        amountRaised += msg.value;\n        LentToLoan(msg.sender, msg.value);\n        \n        checkLoanFunded();\n    }\n    \n    // Disburse to borrowers account, and move to repaying\n    // Note the last lender pays the gas on this but it isn't very expensive)\n    function checkLoanFunded() private {\n        if (amountRaised >= loanAmount) {\n            LoanFunded();\n            if (borrowerAddress.send(amountRaised)) {\n                currentState = State.repaying;\n                DisbursedToBorrower(borrowerAddress, amountRaised);\n            } //@todo error case?\n        }\n    }\n    \n    // Borrower sends wei to the contract, we disburse to all the lenders\n    function repay() payable public {\n        // Only borrowers can repay, and can't repay more than the amount left\n        require(msg.sender == borrowerAddress);\n        require(msg.value <= amountLeftToRepay());\n        \n        amountRepaid += msg.value;\n        RepaidByBorrower(borrowerAddress, msg.value);\n        \n        // Distribute wei evenly to lenders, if there's a remainder we'll distribute at the end\n        uint amountToDistribute = msg.value;\n        uint amountDistributed = 0;\n        for (uint i = 0; i < lenderAddresses.length; i++) {\n            address currentLender = lenderAddresses[i];\n            uint amountForLender = getAmountForLender(amountToDistribute, lenderAccounts[currentLender]);\n            if (amountForLender > 0) {\n                if (currentLender.send(amountForLender)) {\n                    RepaidToLender(currentLender, amountForLender);\n                    lenderAccounts[currentLender].amountRepaid += amountForLender;\n                    amountDistributed += amountForLender;\n                } //@todo error case? Perhaps we need an admin withdrawl bucket for unsendable lender repayments\n            }\n        }\n        \n        checkLoanRepaid();\n    }\n    \n    function getAmountForLender(uint amountToDistribute, LenderAccount account) private view returns (uint) {\n        if (amountRepaid != loanAmount) {\n            // Regular case, division in solidity throws away the remainder\n            return (amountToDistribute * account.amountLent) / loanAmount;\n        } else {\n            // Last repayment case, make sure everyone is topped up\n            return account.amountLent - account.amountRepaid;\n        }\n    }\n    \n    function checkLoanRepaid() private {\n        if (amountRepaid == loanAmount) {\n            currentState = State.repaid;\n            LoanRepaid();\n        }\n    }\n    \n    /* Useful constant functions */\n    \n    function amountLeftToFund() public view returns (uint) {\n        return loanAmount - amountRaised;\n    }\n    \n    function amountLeftToRepay() public view returns (uint) {\n        return loanAmount - amountRepaid;\n    }\n    \n    function isDelinquent() public view returns (bool) {\n        return (now >= repaymentDeadline && currentState != State.repaid);\n    }\n    \n    // Anyone can call this, but it will probably be an admin\n    // If the expiration date has passed, send wei back to lenders\n    function makeExpired() public {\n         if (now >= fundRaisingDeadline && currentState != State.expired) {\n            currentState = State.expired;\n            LoanExpired();\n            for (uint i = 0; i < lenderAddresses.length; i++) {\n                address currentLender = lenderAddresses[i];\n                if (currentLender.send(lenderAccounts[currentLender].amountLent)) {\n                    RepaidToLender(currentLender, lenderAccounts[currentLender].amountLent);\n                } //@todo error case?\n            }\n        }\n    }\n}",
  "sourcePath": "/Users/jsaur/VMs/projects/truffle/lending-dapp/contracts/LoanContract.sol",
  "compiler": {
    "name": "solc",
    "version": "0.4.18+commit.9cf6e910.Emscripten.clang"
  },
  "schemaVersion": "1.0.1",
  "updatedAt": "2017-11-02T09:01:50.948Z"
}