{
  "contractName": "LoanContract",
  "abi": [
    {
      "constant": true,
      "inputs": [],
      "name": "name",
      "outputs": [
        {
          "name": "",
          "type": "string"
        }
      ],
      "payable": false,
      "stateMutability": "view",
      "type": "function"
    },
    {
      "constant": true,
      "inputs": [],
      "name": "currentState",
      "outputs": [
        {
          "name": "",
          "type": "uint8"
        }
      ],
      "payable": false,
      "stateMutability": "view",
      "type": "function"
    },
    {
      "constant": true,
      "inputs": [],
      "name": "repaymentDeadline",
      "outputs": [
        {
          "name": "",
          "type": "uint256"
        }
      ],
      "payable": false,
      "stateMutability": "view",
      "type": "function"
    },
    {
      "constant": true,
      "inputs": [],
      "name": "amountLeftToFund",
      "outputs": [
        {
          "name": "",
          "type": "uint256"
        }
      ],
      "payable": false,
      "stateMutability": "view",
      "type": "function"
    },
    {
      "constant": false,
      "inputs": [
        {
          "name": "",
          "type": "uint256"
        }
      ],
      "name": "makeExpired",
      "outputs": [
        {
          "name": "",
          "type": "address"
        }
      ],
      "payable": false,
      "stateMutability": "nonpayable",
      "type": "function"
    },
    {
      "constant": true,
      "inputs": [
        {
          "name": "",
          "type": "uint256"
        }
      ],
      "name": "lenderAddresses",
      "outputs": [
        {
          "name": "",
          "type": "address"
        }
      ],
      "payable": false,
      "stateMutability": "view",
      "type": "function"
    },
    {
      "constant": false,
      "inputs": [
        {
          "name": "",
          "type": "address"
        }
      ],
      "name": "repay",
      "outputs": [
        {
          "name": "",
          "type": "uint256"
        },
        {
          "name": "amountRepaid",
          "type": "uint256"
        }
      ],
      "payable": true,
      "stateMutability": "payable",
      "type": "function"
    },
    {
      "constant": true,
      "inputs": [
        {
          "name": "",
          "type": "address"
        }
      ],
      "name": "use",
      "outputs": [
        {
          "name": "",
          "type": "string"
        },
        {
          "name": "amountRepaid",
          "type": "uint256"
        }
      ],
      "payable": false,
      "stateMutability": "view",
      "type": "function"
    },
    {
      "constant": false,
      "inputs": [
        {
          "name": "",
          "type": "address"
        }
      ],
      "name": "borrowerWithdraw",
      "outputs": [
        {
          "name": "amountLent",
          "type": "uint256"
        },
        {
          "name": "amountRepaid",
          "type": "uint256"
        },
        {
          "name": "amountWithdrawn",
          "type": "uint256"
        }
      ],
      "payable": false,
      "stateMutability": "nonpayable",
      "type": "function"
    },
    {
      "constant": true,
      "inputs": [],
      "name": "amountLeftToRepay",
      "outputs": [
        {
          "name": "",
          "type": "uint256"
        }
      ],
      "payable": false,
      "stateMutability": "view",
      "type": "function"
    },
    {
      "constant": true,
      "inputs": [
        {
          "name": "",
          "type": "address"
        }
      ],
      "name": "lenderAccounts",
      "outputs": [
        {
          "name": "amountLent",
          "type": "uint256"
        },
        {
          "name": "amountRepaid",
          "type": "uint256"
        },
        {
          "name": "amountWithdrawn",
          "type": "uint256"
        }
      ],
      "payable": false,
      "stateMutability": "view",
      "type": "function"
    },
    {
      "constant": true,
      "inputs": [],
      "name": "amountRaised",
      "outputs": [
        {
          "name": "",
          "type": "uint256"
        }
      ],
      "payable": false,
      "stateMutability": "view",
      "type": "function"
    },
    {
      "constant": true,
      "inputs": [
        {
          "name": "lenderAddr",
          "type": "address"
        }
      ],
      "name": "amountLenderCanWithdraw",
      "outputs": [
        {
          "name": "",
          "type": "uint256"
        }
      ],
      "payable": false,
      "stateMutability": "view",
      "type": "function"
    },
    {
      "constant": false,
      "inputs": [],
      "name": "lend",
      "outputs": [
        {
          "name": "",
          "type": "uint256"
        }
      ],
      "payable": true,
      "stateMutability": "payable",
      "type": "function"
    },
    {
      "inputs": [
        {
          "name": "_borrowerAddress",
          "type": "address"
        },
        {
          "name": "loanAmountInEthers",
          "type": "uint256"
        },
        {
          "name": "fundRaisingDurationInDays",
          "type": "uint256"
        },
        {
          "name": "repaymentDurationInDays",
          "type": "uint256"
        }
      ],
      "payable": false,
      "stateMutability": "view",
      "type": "function",
      "constant": true,
      "name": "loanAmount",
      "outputs": [
        {
          "name": "",
          "type": "uint256"
        }
      ]
    },
    {
      "payable": false,
      "stateMutability": "view",
      "type": "function",
      "constant": true,
      "inputs": [],
      "name": "numLenders",
      "outputs": [
        {
          "name": "",
          "type": "uint256"
        }
      ]
    },
    {
      "anonymous": false,
      "inputs": [
        {
          "indexed": false,
          "name": "_borrowerAddress",
          "type": "address"
        },
        {
          "indexed": false,
          "name": "loanAmountInEthers",
          "type": "uint256"
        },
        {
          "name": "fundRaisingDurationInDays",
          "type": "uint256"
        },
        {
          "name": "repaymentDurationInDays",
          "type": "uint256"
        }
      ],
      "name": "fundRaisingDeadline",
      "type": "function",
      "payable": false,
      "stateMutability": "view",
      "constant": true,
      "outputs": [
        {
          "name": "",
          "type": "uint256"
        }
      ]
    },
    {
      "anonymous": false,
      "inputs": [
        {
          "indexed": false,
          "name": "addr",
          "type": "address"
        },
        {
          "indexed": false,
          "name": "amount",
          "type": "uint256"
        }
      ],
      "name": "isDelinquent",
      "type": "function",
      "payable": false,
      "stateMutability": "view",
      "constant": true,
      "outputs": [
        {
          "name": "",
          "type": "bool"
        }
      ]
    },
    {
      "anonymous": false,
      "inputs": [
        {
          "indexed": false,
          "name": "_borrowerAddress",
          "type": "address"
        },
        {
          "indexed": false,
          "name": "loanAmountInEthers",
          "type": "uint256"
        },
        {
          "name": "fundRaisingDurationInDays",
          "type": "uint256"
        },
        {
          "name": "repaymentDurationInDays",
          "type": "uint256"
        }
      ],
      "name": "amountRepaid",
      "type": "function",
      "payable": false,
      "stateMutability": "view",
      "constant": true,
      "outputs": [
        {
          "name": "",
          "type": "uint256"
        }
      ]
    },
    {
      "anonymous": false,
      "inputs": [
        {
          "indexed": false,
          "name": "addr",
          "type": "address"
        },
        {
          "indexed": false,
          "name": "amount",
          "type": "uint256"
        }
      ],
      "name": "lenderWithdraw",
      "type": "function",
      "constant": false,
      "outputs": [],
      "payable": false,
      "stateMutability": "nonpayable"
    },
    {
      "anonymous": false,
      "inputs": [
        {
          "indexed": false,
          "name": "_borrowerAddress",
          "type": "address"
        },
        {
          "indexed": false,
          "name": "_loanAmountInEthers",
          "type": "uint256"
        },
        {
          "name": "_fundRaisingDurationInDays",
          "type": "uint256"
        },
        {
          "name": "_repaymentDurationInDays",
          "type": "uint256"
        },
        {
          "name": "_name",
          "type": "string"
        },
        {
          "name": "_use",
          "type": "string"
        }
      ],
      "name": "LoanContract",
      "type": "constructor",
      "payable": false,
      "stateMutability": "nonpayable"
    },
    {
      "anonymous": false,
      "inputs": [
        {
          "indexed": false,
          "name": "addr",
          "type": "address"
        },
        {
          "indexed": false,
          "name": "amount",
          "type": "uint256"
        }
      ],
      "name": "LentToLoan",
      "type": "event"
    },
    {
      "anonymous": false,
      "inputs": [
        {
          "indexed": false,
          "name": "addr",
          "type": "address"
        },
        {
          "indexed": false,
          "name": "amount",
          "type": "uint256"
        }
      ],
      "name": "DisbursedToBorrower",
      "type": "event"
    },
    {
      "anonymous": false,
      "inputs": [
        {
          "indexed": false,
          "name": "addr",
          "type": "address"
        },
        {
          "indexed": false,
          "name": "amount",
          "type": "uint256"
        }
      ],
      "name": "RepaidByBorrower",
      "type": "event"
    },
    {
      "anonymous": false,
      "inputs": [
        {
          "indexed": false,
          "name": "addr",
          "type": "address"
        },
        {
          "indexed": false,
          "name": "amount",
          "type": "uint256"
        }
      ],
      "name": "RepaidToLender",
      "type": "event"
    },
    {
      "anonymous": false,
      "inputs": [
        {
          "indexed": false,
          "name": "addr",
          "type": "address"
        },
        {
          "indexed": false,
          "name": "amount",
          "type": "uint256"
        }
      ],
      "name": "SentBack",
      "type": "event"
    },
    {
      "anonymous": false,
      "inputs": [
        {
          "indexed": false,
          "name": "addr",
          "type": "address"
        },
        {
          "indexed": false,
          "name": "amount",
          "type": "uint256"
        }
      ],
      "name": "LenderWithdrew",
      "type": "event"
    },
    {
      "anonymous": false,
      "inputs": [],
      "name": "LoanFunded",
      "type": "event"
    },
    {
      "anonymous": false,
      "inputs": [],
      "name": "LoanExpired",
      "type": "event"
    },
    {
      "anonymous": false,
      "inputs": [],
      "name": "LoanRepaid",
      "type": "event"
    }
  ],
  "bytecode": "0x606060405234156200001057600080fd5b604051620015b9380380620015b983398101604052808051906020019091908051906020019091908051906020019091908051906020019091908051820191906020018051820191905050856000806101000a81548173ffffffffffffffffffffffffffffffffffffffff021916908373ffffffffffffffffffffffffffffffffffffffff160217905550670de0b6b3a764000085026001819055506201518084024201600281905550620151808302600254016003819055508160049080519060200190620000e292919062000108565b508060059080519060200190620000fb92919062000108565b50505050505050620001b7565b828054600181600116156101000203166002900490600052602060002090601f016020900481019282601f106200014b57805160ff19168380011785556200017c565b828001600101855582156200017c579182015b828111156200017b5782518255916020019190600101906200015e565b5b5090506200018b91906200018f565b5090565b620001b491905b80821115620001b057600081600090555060010162000196565b5090565b90565b6113f280620001c76000396000f300606060405260043610610112576000357c0100000000000000000000000000000000000000000000000000000000900463ffffffff16806306fdde03146101175780630c3f6acf146101a557806319cc3aaa146101dc578063281380e81461020557806328b4e8561461022e5780632d6963ce14610243578063402d8883146102a65780634c97d71a146102b05780635cdb98291461033e5780635edf0c9e146103535780635f97a7d81461037c5780637b3e5e7b146103d757806395e723141461040057806397dffc611461044d5780639d585f7f14610457578063bb927c4614610480578063cbc9130e146104a9578063d0bf4de6146104d2578063ee86afd8146104ff578063f14f6e1714610528575b600080fd5b341561012257600080fd5b61012a61053d565b6040518080602001828103825283818151815260200191508051906020019080838360005b8381101561016a57808201518184015260208101905061014f565b50505050905090810190601f1680156101975780820380516001836020036101000a031916815260200191505b509250505060405180910390f35b34156101b057600080fd5b6101b86105db565b604051808260048111156101c857fe5b60ff16815260200191505060405180910390f35b34156101e757600080fd5b6101ef6105ee565b6040518082815260200191505060405180910390f35b341561021057600080fd5b6102186105f4565b6040518082815260200191505060405180910390f35b341561023957600080fd5b610241610602565b005b341561024e57600080fd5b610264600480803590602001909190505061081c565b604051808273ffffffffffffffffffffffffffffffffffffffff1673ffffffffffffffffffffffffffffffffffffffff16815260200191505060405180910390f35b6102ae61085b565b005b34156102bb57600080fd5b6102c3610b20565b6040518080602001828103825283818151815260200191508051906020019080838360005b838110156103035780820151818401526020810190506102e8565b50505050905090810190601f1680156103305780820380516001836020036101000a031916815260200191505b509250505060405180910390f35b341561034957600080fd5b610351610bbe565b005b341561035e57600080fd5b610366610d4f565b6040518082815260200191505060405180910390f35b341561038757600080fd5b6103b3600480803573ffffffffffffffffffffffffffffffffffffffff16906020019091905050610d5d565b60405180848152602001838152602001828152602001935050505060405180910390f35b34156103e257600080fd5b6103ea610d87565b6040518082815260200191505060405180910390f35b341561040b57600080fd5b610437600480803573ffffffffffffffffffffffffffffffffffffffff16906020019091905050610d8d565b6040518082815260200191505060405180910390f35b610455610e8c565b005b341561046257600080fd5b61046a611105565b6040518082815260200191505060405180910390f35b341561048b57600080fd5b61049361110b565b6040518082815260200191505060405180910390f35b34156104b457600080fd5b6104bc611118565b6040518082815260200191505060405180910390f35b34156104dd57600080fd5b6104e561111e565b604051808215151515815260200191505060405180910390f35b341561050a57600080fd5b61051261115d565b6040518082815260200191505060405180910390f35b341561053357600080fd5b61053b611163565b005b60048054600181600116156101000203166002900480601f0160208091040260200160405190810160405280929190818152602001828054600181600116156101000203166002900480156105d35780601f106105a8576101008083540402835291602001916105d3565b820191906000526020600020905b8154815290600101906020018083116105b657829003601f168201915b505050505081565b600a60009054906101000a900460ff1681565b60035481565b600060065460015403905090565b600080600254421015801561063c575060048081111561061e57fe5b600a60009054906101000a900460ff16600481111561063957fe5b14155b15610818576004600a60006101000a81548160ff0219169083600481111561066057fe5b02179055507f5dc919cafc7dd3f912b1ba505941b4eb1c8f4fd4bea581b22982d7d0feef549c60405160405180910390a1600091505b600880549050821015610817576008828154811015156106b257fe5b906000526020600020900160009054906101000a900473ffffffffffffffffffffffffffffffffffffffff1690508073ffffffffffffffffffffffffffffffffffffffff166108fc600960008473ffffffffffffffffffffffffffffffffffffffff1673ffffffffffffffffffffffffffffffffffffffff168152602001908152602001600020600001549081150290604051600060405180830381858888f193505050501561080a577f5f1d3e8a00979c6a9305039148c35f8fa408d3292c93f865cad76e32ae6ce0bb81600960008473ffffffffffffffffffffffffffffffffffffffff1673ffffffffffffffffffffffffffffffffffffffff16815260200190815260200160002060000154604051808373ffffffffffffffffffffffffffffffffffffffff1673ffffffffffffffffffffffffffffffffffffffff1681526020018281526020019250505060405180910390a15b8180600101925050610696565b5b5050565b60088181548110151561082b57fe5b90600052602060002090016000915054906101000a900473ffffffffffffffffffffffffffffffffffffffff1681565b60008060008060008060009054906101000a900473ffffffffffffffffffffffffffffffffffffffff1673ffffffffffffffffffffffffffffffffffffffff163373ffffffffffffffffffffffffffffffffffffffff161415156108be57600080fd5b6108c6610d4f565b34111515156108d457600080fd5b346007600082825401925050819055507f9540628bcc956d1875c390fc9c9937464c5d6a3bcef396c4c48c262c25f89e796000809054906101000a900473ffffffffffffffffffffffffffffffffffffffff1634604051808373ffffffffffffffffffffffffffffffffffffffff1673ffffffffffffffffffffffffffffffffffffffff1681526020018281526020019250505060405180910390a134945060009350600092505b600880549050831015610b115760088381548110151561099857fe5b906000526020600020900160009054906101000a900473ffffffffffffffffffffffffffffffffffffffff169150610a3885600960008573ffffffffffffffffffffffffffffffffffffffff1673ffffffffffffffffffffffffffffffffffffffff168152602001908152602001600020606060405190810160405290816000820154815260200160018201548152602001600282015481525050611278565b90506000811115610b04577f5f1d3e8a00979c6a9305039148c35f8fa408d3292c93f865cad76e32ae6ce0bb8282604051808373ffffffffffffffffffffffffffffffffffffffff1673ffffffffffffffffffffffffffffffffffffffff1681526020018281526020019250505060405180910390a180600960008473ffffffffffffffffffffffffffffffffffffffff1673ffffffffffffffffffffffffffffffffffffffff1681526020019081526020016000206001016000828254019250508190555080840193505b828060010193505061097c565b610b196112b6565b5050505050565b60058054600181600116156101000203166002900480601f016020809104026020016040519081016040528092919081815260200182805460018160011615610100020316600290048015610bb65780601f10610b8b57610100808354040283529160200191610bb6565b820191906000526020600020905b815481529060010190602001808311610b9957829003601f168201915b505050505081565b6000809054906101000a900473ffffffffffffffffffffffffffffffffffffffff1673ffffffffffffffffffffffffffffffffffffffff163373ffffffffffffffffffffffffffffffffffffffff16141515610c1957600080fd5b60016004811115610c2657fe5b600a60009054906101000a900460ff166004811115610c4157fe5b141515610c4d57600080fd5b60006006541115610d4d573373ffffffffffffffffffffffffffffffffffffffff166108fc6006549081150290604051600060405180830381858888f193505050501515610c9a57600080fd5b7f578e21d0b157d96ca63ed68a4b14ae51e6eee5a6fc77905ede446749fa5a1ab56000809054906101000a900473ffffffffffffffffffffffffffffffffffffffff16600654604051808373ffffffffffffffffffffffffffffffffffffffff1673ffffffffffffffffffffffffffffffffffffffff1681526020018281526020019250505060405180910390a16002600a60006101000a81548160ff02191690836004811115610d4757fe5b02179055505b565b600060075460015403905090565b60096020528060005260406000206000915090508060000154908060010154908060020154905083565b60065481565b6000806000809150600960008573ffffffffffffffffffffffffffffffffffffffff1673ffffffffffffffffffffffffffffffffffffffff1681526020019081526020016000209050600480811115610de257fe5b600a60009054906101000a900460ff166004811115610dfd57fe5b1415610e155780600201548160000154039150610e82565b60026004811115610e2257fe5b600a60009054906101000a900460ff166004811115610e3d57fe5b1480610e6e575060036004811115610e5157fe5b600a60009054906101000a900460ff166004811115610e6c57fe5b145b15610e8157806002015481600101540391505b5b8192505050919050565b6000809054906101000a900473ffffffffffffffffffffffffffffffffffffffff1673ffffffffffffffffffffffffffffffffffffffff163373ffffffffffffffffffffffffffffffffffffffff1614151515610ee857600080fd5b610ef06105f4565b3411151515610efe57600080fd5b6000600960003373ffffffffffffffffffffffffffffffffffffffff1673ffffffffffffffffffffffffffffffffffffffff16815260200190815260200160002060000154141561102f5760088054806001018281610f5d9190611375565b9160005260206000209001600033909190916101000a81548173ffffffffffffffffffffffffffffffffffffffff021916908373ffffffffffffffffffffffffffffffffffffffff16021790555050606060405190810160405280348152602001600081526020016000815250600960003373ffffffffffffffffffffffffffffffffffffffff1673ffffffffffffffffffffffffffffffffffffffff168152602001908152602001600020600082015181600001556020820151816001015560408201518160020155905050611080565b34600960003373ffffffffffffffffffffffffffffffffffffffff1673ffffffffffffffffffffffffffffffffffffffff168152602001908152602001600020600001600082825401925050819055505b346006600082825401925050819055507f47047d86227821f4ba4162b47a4e21f3751a6898df27767881baae61a5df54b93334604051808373ffffffffffffffffffffffffffffffffffffffff1673ffffffffffffffffffffffffffffffffffffffff1681526020018281526020019250505060405180910390a1611103611315565b565b60015481565b6000600880549050905090565b60025481565b6000600354421015801561115857506003600481111561113a57fe5b600a60009054906101000a900460ff16600481111561115557fe5b14155b905090565b60075481565b600061116e33610d8d565b90506000811115611275573373ffffffffffffffffffffffffffffffffffffffff166108fc829081150290604051600060405180830381858888f1935050505015156111b957600080fd5b80600960003373ffffffffffffffffffffffffffffffffffffffff1673ffffffffffffffffffffffffffffffffffffffff168152602001908152602001600020600201600082825401925050819055507f5eb46cc574ef1abdbd52310ce761acbb5cbd48af34b53e4f32083f205c8a977e3382604051808373ffffffffffffffffffffffffffffffffffffffff1673ffffffffffffffffffffffffffffffffffffffff1681526020018281526020019250505060405180910390a15b50565b60006001546007541415156112a2576001548260000151840281151561129a57fe5b0490506112b0565b816020015182600001510390505b92915050565b6001546007541415611313576003600a60006101000a81548160ff021916908360048111156112e157fe5b02179055507f1062e18f9d21decf38f145fc9b437cd2c70e09252a729f9830b75ffdaaf3789460405160405180910390a15b565b600154600654101515611373576001600a60006101000a81548160ff0219169083600481111561134157fe5b02179055507f3351ae6756a83898700959ab1a672004e55a70dd6e74a45a80835316af9c76a460405160405180910390a15b565b81548183558181151161139c5781836000526020600020918201910161139b91906113a1565b5b505050565b6113c391905b808211156113bf5760008160009055506001016113a7565b5090565b905600a165627a7a7230582038fca8179c45ac63dc82ce63ca6f1a87f4993f283cd283eede34b48dbc951dd30029",
  "source": "pragma solidity ^0.4.15;\n/*\n    A simple loan contract which allows lenders to lend and borrowers to repay\n*/\ncontract LoanContract {\n    //Constructor vars\n    address borrowerAddress;\n    uint public loanAmount;\n    uint public fundRaisingDeadline;\n    uint public repaymentDeadline;\n    string public name;\n    string public use;\n    \n    //Useful vars\n    uint public amountRaised;\n    uint public amountRepaid;\n    /* Since solidity doesn't allow iterating over mapping, we need 2 data structures to represent lender accounts */\n    address[] public lenderAddresses;\n    mapping(address => LenderAccount) public lenderAccounts;\n    enum State {raising, funded, repaying, repaid, expired} //default?\n    State public currentState;\n    struct LenderAccount {\n        uint amountLent;\n        uint amountRepaid;\n        uint amountWithdrawn;\n    }\n    \n    //Events\n    event LentToLoan(address addr, uint amount);\n    event DisbursedToBorrower(address addr, uint amount);\n    event RepaidByBorrower(address addr, uint amount);\n    event RepaidToLender(address addr, uint amount);\n    event SentBack(address addr, uint amount);\n    event LenderWithdrew(address addr, uint amount);\n    event LoanFunded();\n    event LoanExpired();\n    event LoanRepaid();\n    \n    // Constructor\n    function LoanContract(\n        address _borrowerAddress, \n        uint _loanAmountInEthers,\n        uint _fundRaisingDurationInDays,\n        uint _repaymentDurationInDays,\n        string _name,\n        string _use\n    ) public {\n        borrowerAddress = _borrowerAddress;\n        loanAmount = _loanAmountInEthers * 1 ether;\n        fundRaisingDeadline = now + _fundRaisingDurationInDays * 1 days;\n        repaymentDeadline = fundRaisingDeadline + _repaymentDurationInDays * 1 days;\n        name = _name;\n        use = _use;\n    }\n    \n    // Lender sends wei to the contract, we store how much they lent\n    function lend() payable public {\n        // Don't allow borrowers to lend, or allow overfunding\n        require(msg.sender != borrowerAddress);\n        require(msg.value <= amountLeftToFund());\n        \n        // Handle lender lending twice\n        if (lenderAccounts[msg.sender].amountLent == 0) {\n            lenderAddresses.push(msg.sender);\n            lenderAccounts[msg.sender] = LenderAccount(msg.value, 0, 0);\n        } else {\n            lenderAccounts[msg.sender].amountLent += msg.value;\n        }\n        \n        amountRaised += msg.value;\n        LentToLoan(msg.sender, msg.value);\n        \n        checkLoanFunded();\n    }\n    \n    // If we have raised the full loan amount, then transition to funded\n    function checkLoanFunded() private {\n        if (amountRaised >= loanAmount) {\n            currentState = State.funded;\n            LoanFunded();\n        }\n    }\n    \n    // The recommended pattern for disbursals is to have the borrower withdraw\n    function borrowerWithdraw() public {\n         // Only borrowers can withdraw, and only in the funded state\n        require(msg.sender == borrowerAddress);\n        require(currentState == State.funded);\n        \n        if (amountRaised > 0) {\n            msg.sender.transfer(amountRaised);\n            DisbursedToBorrower(borrowerAddress, amountRaised);\n            currentState = State.repaying;\n        }\n    }\n    \n    // Borrower sends wei to the contract, we record the amount repaid\n    function repay() payable public {\n        // Only borrowers can repay, and can't repay more than the amount left\n        require(msg.sender == borrowerAddress);\n        require(msg.value <= amountLeftToRepay());\n        \n        amountRepaid += msg.value;\n        RepaidByBorrower(borrowerAddress, msg.value);\n        \n        // Distribute wei evenly to lenders, if there's a remainder we'll distribute at the end\n        uint amountToDistribute = msg.value;\n        uint amountDistributed = 0;\n        for (uint i = 0; i < lenderAddresses.length; i++) {\n            address currentLender = lenderAddresses[i];\n            uint amountForLender = getAmountForLender(amountToDistribute, lenderAccounts[currentLender]);\n            if (amountForLender > 0) {\n                RepaidToLender(currentLender, amountForLender);\n                lenderAccounts[currentLender].amountRepaid += amountForLender;\n                amountDistributed += amountForLender;\n            }\n        }\n        \n        checkLoanRepaid();\n    }\n    \n    function getAmountForLender(uint amountToDistribute, LenderAccount account) private view returns (uint) {\n        if (amountRepaid != loanAmount) {\n            // Regular case, division in solidity throws away the remainder\n            return (amountToDistribute * account.amountLent) / loanAmount;\n        } else {\n            // Last repayment case, make sure everyone is topped up\n            return account.amountLent - account.amountRepaid;\n        }\n    }\n    \n    function checkLoanRepaid() private {\n        if (amountRepaid == loanAmount) {\n            currentState = State.repaid;\n            LoanRepaid();\n        }\n    }\n    \n    // The recommended pattern for lender's to recieve repayments is to have them withdraw\n    function lenderWithdraw() public {\n        uint amountToWithdraw = amountLenderCanWithdraw(msg.sender);\n        if (amountToWithdraw > 0) {\n            msg.sender.transfer(amountToWithdraw);\n            lenderAccounts[msg.sender].amountWithdrawn += amountToWithdraw;\n            LenderWithdrew(msg.sender, amountToWithdraw);\n        }\n    }\n    \n    // Calculates how much the lender can withdraw based on loan state\n    function amountLenderCanWithdraw(address lenderAddr) public view returns (uint) {\n        uint amountCanWithdraw = 0;\n        LenderAccount storage lenderAccount = lenderAccounts[lenderAddr];\n        if (currentState == State.expired) {\n            /* If the loan expired, lenders can withdraw their contributed amount*/\n            amountCanWithdraw = lenderAccount.amountLent - lenderAccount.amountWithdrawn;\n        } else if (currentState == State.repaying || currentState == State.repaid) {\n            /* If the loan is repaying or fully repaid the lenders can withdraw however much has been repaid to them */\n            amountCanWithdraw = lenderAccount.amountRepaid - lenderAccount.amountWithdrawn;\n        }\n        return amountCanWithdraw;\n    }\n    \n    /* Useful constant functions */\n    \n    function numLenders() public view returns (uint) {\n        return lenderAddresses.length;\n    }\n    \n    function amountLeftToFund() public view returns (uint) {\n        return loanAmount - amountRaised;\n    }\n    \n    function amountLeftToRepay() public view returns (uint) {\n        return loanAmount - amountRepaid;\n    }\n    \n    function isDelinquent() public view returns (bool) {\n        return (now >= repaymentDeadline && currentState != State.repaid);\n    }\n    \n    // Anyone can call this, but it will probably be an admin\n    // If the expiration date has passed, send wei back to lenders\n    function makeExpired() public {\n         if (now >= fundRaisingDeadline && currentState != State.expired) {\n            currentState = State.expired;\n            LoanExpired();\n            for (uint i = 0; i < lenderAddresses.length; i++) {\n                address currentLender = lenderAddresses[i];\n                if (currentLender.send(lenderAccounts[currentLender].amountLent)) {\n                    RepaidToLender(currentLender, lenderAccounts[currentLender].amountLent);\n                } //@todo error case?\n            }\n        }\n    }\n}",
  "sourcePath": "/Users/jsaur/VMs/projects/truffle/lending-dapp/contracts/LoanContract.sol",
  "compiler": {
    "name": "solc",
    "version": "0.4.18+commit.9cf6e910.Emscripten.clang"
  },
  "schemaVersion": "1.0.1",
  "updatedAt": "2017-11-03T09:56:22.333Z"
}